07:48:19.732369 IP BP-Linux8.ssh > 192.168.190.222.61617: Flags [P.], seq 2767521980:2767522088, ack 3024075344, win 291, options [nop,nop,TS val 136694980 ecr 2033236869], length 108
	0x0000:  4512 00a0 625f 4000 4006 2499 c0a8 731e
	0x0010:  c0a8 bede 0016 f0b1 a4f5 08bc b43f ba50
	0x0020:  8018 0123 b3e0 0000 0101 080a 0825 ccc4
	0x0030:  7930 bb85 d767 39d9 9900 b438 4afd 0c27
	0x0040:  54a5 f406 6625 a7f6 591e 1181 d081 2876
	0x0050:  0572 26e3 ece5 bac9 152e b9e9 9089 f855
	0x0060:  154a d19d 5768 4d31 1030 0ac3 c419 efd4
	0x0070:  46bf 8532 496a 6818 1a51 b68a b290 4d5d
	0x0080:  2d82 d1c5 574b 29f9 1281 1962 7adb 56d8
	0x0090:  f630 08f5 9d84 e25d a027 253a a668 6318
07:48:19.732419 IP BP-Linux8.ssh > 192.168.190.222.61617: Flags [P.], seq 108:144, ack 1, win 291, options [nop,nop,TS val 136694980 ecr 2033236869], length 36
	0x0000:  4512 0058 6260 4000 4006 24e0 c0a8 731e
	0x0010:  c0a8 bede 0016 f0b1 a4f5 0928 b43f ba50
	0x0020:  8018 0123 b398 0000 0101 080a 0825 ccc4
	0x0030:  7930 bb85 91ae 7423 a73b 1907 416d fefb
	0x0040:  2d98 32e6 6095 4843 6d97 d1be 1bb3 c1db
	0x0050:  e677 9c12 02af 2967
07:48:19.732448 IP BP-Linux8.ssh > 192.168.190.222.61617: Flags [P.], seq 144:252, ack 1, win 291, options [nop,nop,TS val 136694980 ecr 2033236869], length 108
	0x0000:  4512 00a0 6261 4000 4006 2497 c0a8 731e
	0x0010:  c0a8 bede 0016 f0b1 a4f5 094c b43f ba50
	0x0020:  8018 0123 b3e0 0000 0101 080a 0825 ccc4
	0x0030:  7930 bb85 c8ae abc0 72e8 5c2b 9152 b54f
	0x0040:  f90b 1822 770c 3350 9dca c675 e173 211d
	0x0050:  8cb2 396c 909d 3898 f1b0 7730 f6f6 71b9
	0x0060:  0faf 78a1 a2c3 e57e 3d9b f708 f4da 5018
	0x0070:  1885 0ee0 19c5 ece6 daf6 6c92 10c8 e2b6
	0x0080:  db66 8b41 3109 5951 e6c1 a794 e6e7 a0bb
	0x0090:  9f1f 3fb3 df07 59dc e460 2a3f 04ac 0356
07:48:19.732472 IP BP-Linux8.ssh > 192.168.190.222.61617: Flags [P.], seq 252:288, ack 1, win 291, options [nop,nop,TS val 136694980 ecr 2033236869], length 36
	0x0000:  4512 0058 6262 4000 4006 24de c0a8 731e
	0x0010:  c0a8 bede 0016 f0b1 a4f5 09b8 b43f ba50
	0x0020:  8018 0123 b398 0000 0101 080a 0825 ccc4
	0x0030:  7930 bb85 b913 fc52 d56a 4c0e d435 9ed4
	0x0040:  bb46 3822 c3bf 2d68 dcd9 e46d 3c52 0521
	0x0050:  7647 1c64 5bd0 11be
07:48:19.737919 IP 192.168.190.222.61617 > BP-Linux8.ssh: Flags [.], ack 108, win 2046, options [nop,nop,TS val 2033237655 ecr 136694980], length 0
	0x0000:  4548 0034 0000 4000 3f06 882e c0a8 bede
	0x0010:  c0a8 731e f0b1 0016 b43f ba50 a4f5 0928
	0x0020:  8010 07fe a149 0000 0101 080a 7930 be97
	0x0030:  0825 ccc4
07:48:19.737993 IP 192.168.190.222.61617 > BP-Linux8.ssh: Flags [.], ack 144, win 2047, options [nop,nop,TS val 2033237655 ecr 136694980], length 0
	0x0000:  4548 0034 0000 4000 3f06 882e c0a8 bede
	0x0010:  c0a8 731e f0b1 0016 b43f ba50 a4f5 094c
	0x0020:  8010 07ff a124 0000 0101 080a 7930 be97
	0x0030:  0825 ccc4
07:48:19.738012 IP 192.168.190.222.61617 > BP-Linux8.ssh: Flags [.], ack 252, win 2046, options [nop,nop,TS val 2033237655 ecr 136694980], length 0
	0x0000:  4548 0034 0000 4000 3f06 882e c0a8 bede
	0x0010:  c0a8 731e f0b1 0016 b43f ba50 a4f5 09b8
	0x0020:  8010 07fe a0b9 0000 0101 080a 7930 be97
	0x0030:  0825 ccc4
07:48:19.738112 IP 192.168.190.222.61617 > BP-Linux8.ssh: Flags [.], ack 288, win 2047, options [nop,nop,TS val 2033237655 ecr 136694980], length 0
	0x0000:  4548 0034 0000 4000 3f06 882e c0a8 bede
	0x0010:  c0a8 731e f0b1 0016 b43f ba50 a4f5 09dc
	0x0020:  8010 07ff a094 0000 0101 080a 7930 be97
	0x0030:  0825 ccc4
07:48:20.733627 IP BP-Linux8.49710 > ns1.lan.rt.domain: 31254+ PTR? 222.190.168.192.in-addr.arpa. (46)
	0x0000:  4500 004a 72ae 4000 4011 8f27 c0a8 731e
	0x0010:  0afa fa0c c22e 0035 0036 3915 7a16 0100
	0x0020:  0001 0000 0000 0000 0332 3232 0331 3930
	0x0030:  0331 3638 0331 3932 0769 6e2d 6164 6472
	0x0040:  0461 7270 6100 000c 0001
07:48:20.734593 IP ns1.lan.rt.domain > BP-Linux8.49710: 31254 NXDomain 0/1/0 (112)
	0x0000:  4500 008c 1374 0000 7f11 ef1f 0afa fa0c
	0x0010:  c0a8 731e 0035 c22e 0078 28e5 7a16 8183
	0x0020:  0001 0000 0001 0000 0332 3232 0331 3930
	0x0030:  0331 3638 0331 3932 0769 6e2d 6164 6472
	0x0040:  0461 7270 6100 000c 0001 c014 0006 0001
	0x0050:  0000 032e 0036 0673 7472 6f70 680f 756e
	0x0060:  6976 2d73 742d 6574 6965 6e6e 6502 6672
	0x0070:  0004 726f 6f74 c041 7885 6ee9 0000 5460
	0x0080:  0000 0e10 000d 2f00 0000 2a30
07:48:21.243601 IP 192.168.190.222.61599 > BP-Linux8.ssh: Flags [P.], seq 234188084:234188120, ack 915563485, win 2048, options [nop,nop,TS val 2033239158 ecr 136687195], length 36
	0x0000:  4548 0058 0000 4000 3f06 880a c0a8 bede
	0x0010:  c0a8 731e f09f 0016 0df5 6d34 3692 63dd
	0x0020:  8018 0800 aeb6 0000 0101 080a 7930 c476
	0x0030:  0825 ae5b 6b72 c608 9de5 0556 fb30 20ca
	0x0040:  06a5 aeb7 7d93 aaff 318b 1bb5 7716 0039
	0x0050:  e9e1 f984 a588 f5f4
07:48:21.244153 IP BP-Linux8.ssh > 192.168.190.222.61599: Flags [P.], seq 1:37, ack 36, win 291, options [nop,nop,TS val 136695358 ecr 2033239158], length 36
	0x0000:  4510 0058 2c42 4000 4006 5b00 c0a8 731e
	0x0010:  c0a8 bede 0016 f09f 3692 63dd 0df5 6d58
	0x0020:  8018 0123 b398 0000 0101 080a 0825 ce3e
	0x0030:  7930 c476 77ac cc9c 3f57 9999 c644 893a
	0x0040:  fa4a f2dd addd 4b90 abaa b189 9d12 aef1
	0x0050:  6ca7 0b36 7015 27d4
07:48:21.246053 IP BP-Linux8.54575 > ns1.lan.rt.domain: 50942+ A? imdb.com. (26)
	0x0000:  4500 0036 72ce 4000 4011 8f1b c0a8 731e
	0x0010:  0afa fa0c d52f 0035 0022 3901 c6fe 0100
	0x0020:  0001 0000 0000 0000 0469 6d64 6203 636f
	0x0030:  6d00 0001 0001
07:48:21.249648 IP 192.168.190.222.61599 > BP-Linux8.ssh: Flags [.], ack 37, win 2047, options [nop,nop,TS val 2033239164 ecr 136695358], length 0
	0x0000:  4548 0034 0000 4000 3f06 882e c0a8 bede
	0x0010:  c0a8 731e f09f 0016 0df5 6d58 3692 6401
	0x0020:  8010 07ff a0c8 0000 0101 080a 7930 c47c
	0x0030:  0825 ce3e
07:48:21.273815 IP ns1.lan.rt.domain > BP-Linux8.54575: 50942 3/0/0 A 52.94.228.167, A 52.94.237.74, A 52.94.225.248 (74)
	0x0000:  4500 0066 1375 0000 7f11 ef44 0afa fa0c
	0x0010:  c0a8 731e 0035 d52f 0052 688a c6fe 8180
	0x0020:  0001 0003 0000 0000 0469 6d64 6203 636f
	0x0030:  6d00 0001 0001 c00c 0001 0001 0000 0383
	0x0040:  0004 345e e4a7 c00c 0001 0001 0000 0383
	0x0050:  0004 345e ed4a c00c 0001 0001 0000 0383
	0x0060:  0004 345e e1f8
07:48:21.279679 IP BP-Linux8.ssh > 192.168.190.222.61599: Flags [P.], seq 37:145, ack 36, win 291, options [nop,nop,TS val 136695367 ecr 2033239164], length 108
	0x0000:  4510 00a0 2c43 4000 4006 5ab7 c0a8 731e
	0x0010:  c0a8 bede 0016 f09f 3692 6401 0df5 6d58
	0x0020:  8018 0123 b3e0 0000 0101 080a 0825 ce47
	0x0030:  7930 c47c 1d24 6471 a1cc 765b dfbb 2cf4
	0x0040:  c1c4 4fb7 2a2f da49 ffcf 1d0e 0bf8 6a89
	0x0050:  9a68 0f6c 2716 24a0 ec23 fe63 6b3b dbd4
	0x0060:  f970 b123 930b a2a1 0b2e 35de 1b35 afe5
	0x0070:  d809 e0d4 e7ce 6355 ee54 e6ef cbf6 4560
	0x0080:  e037 4eab 6670 939a f990 448d 0263 c7db
	0x0090:  b3df ad34 afc8 6877 18ae b8db 7686 bf84
07:48:21.279716 IP BP-Linux8.ssh > 192.168.190.222.61599: Flags [P.], seq 145:181, ack 36, win 291, options [nop,nop,TS val 136695367 ecr 2033239164], length 36
	0x0000:  4510 0058 2c44 4000 4006 5afe c0a8 731e
	0x0010:  c0a8 bede 0016 f09f 3692 646d 0df5 6d58
	0x0020:  8018 0123 b398 0000 0101 080a 0825 ce47
	0x0030:  7930 c47c 7c72 8675 f82c 1caa 9798 7cba
	0x0040:  eb19 71e2 70f7 fd65 9330 fe82 dff7 e1fd
	0x0050:  dde8 19dc e9a0 70a0
07:48:21.279742 IP 164.100.61.151.1511 > 52.94.228.167.http: Flags [S], seq 1195841279:1195841399, win 512, length 120: HTTP
	0x0000:  4500 00a0 b02f 0000 4006 cf27 a464 3d97
	0x0010:  345e e4a7 05e7 0050 4747 16ff 6a60 edfb
	0x0020:  5002 0200 40db 0000 5858 5858 5858 5858
	0x0030:  5858 5858 5858 5858 5858 5858 5858 5858
	0x0040:  5858 5858 5858 5858 5858 5858 5858 5858
	0x0050:  5858 5858 5858 5858 5858 5858 5858 5858
	0x0060:  5858 5858 5858 5858 5858 5858 5858 5858
	0x0070:  5858 5858 5858 5858 5858 5858 5858 5858
	0x0080:  5858 5858 5858 5858 5858 5858 5858 5858
	0x0090:  5858 5858 5858 5858 5858 5858 5858 5858
07:48:21.279768 IP 164.100.61.151.1512 > 52.94.228.167.http: Flags [S], seq 477491976:477492096, win 512, length 120: HTTP
	0x0000:  4500 00a0 12fb 0000 4006 6c5c a464 3d97
	0x0010:  345e e4a7 05e8 0050 1c75 f308 713f 9b5c
	0x0020:  5002 0200 db62 0000 5858 5858 5858 5858
	0x0030:  5858 5858 5858 5858 5858 5858 5858 5858
	0x0040:  5858 5858 5858 5858 5858 5858 5858 5858
	0x0050:  5858 5858 5858 5858 5858 5858 5858 5858
	0x0060:  5858 5858 5858 5858 5858 5858 5858 5858
	0x0070:  5858 5858 5858 5858 5858 5858 5858 5858
	0x0080:  5858 5858 5858 5858 5858 5858 5858 5858
	0x0090:  5858 5858 5858 5858 5858 5858 5858 5858
07:48:21.279789 IP 164.100.61.151.1513 > 52.94.228.167.http: Flags [S], seq 200191722:200191842, win 512, length 120: HTTP
	0x0000:  4500 00a0 0a19 0000 4006 753e a464 3d97
	0x0010:  345e e4a7 05e9 0050 0bee aeea 56be 0c04
	0x0020:  5002 0200 d9e0 0000 5858 5858 5858 5858
	0x0030:  5858 5858 5858 5858 5858 5858 5858 5858
	0x0040:  5858 5858 5858 5858 5858 5858 5858 5858
	0x0050:  5858 5858 5858 5858 5858 5858 5858 5858
	0x0060:  5858 5858 5858 5858 5858 5858 5858 5858
	0x0070:  5858 5858 5858 5858 5858 5858 5858 5858
	0x0080:  5858 5858 5858 5858 5858 5858 5858 5858
	0x0090:  5858 5858 5858 5858 5858 5858 5858 5858
07:48:21.279809 IP 164.100.61.151.1514 > 52.94.228.167.http: Flags [S], seq 1846444293:1846444413, win 512, length 120: HTTP
	0x0000:  4500 00a0 c391 0000 4006 bbc5 a464 3d97
	0x0010:  345e e4a7 05ea 0050 6e0e 8105 6b5d 2ad6
	0x0020:  5002 0200 7233 0000 5858 5858 5858 5858
	0x0030:  5858 5858 5858 5858 5858 5858 5858 5858
	0x0040:  5858 5858 5858 5858 5858 5858 5858 5858
	0x0050:  5858 5858 5858 5858 5858 5858 5858 5858
	0x0060:  5858 5858 5858 5858 5858 5858 5858 5858
	0x0070:  5858 5858 5858 5858 5858 5858 5858 5858
	0x0080:  5858 5858 5858 5858 5858 5858 5858 5858
	0x0090:  5858 5858 5858 5858 5858 5858 5858 5858
07:48:21.279829 IP 164.100.61.151.1515 > 52.94.228.167.http: Flags [S], seq 1210409127:1210409247, win 512, length 120: HTTP
	0x0000:  4500 00a0 64ad 0000 4006 1aaa a464 3d97
	0x0010:  345e e4a7 05eb 0050 4825 60a7 4c6a f3b2
	0x0020:  5002 0200 0e90 0000 5858 5858 5858 5858
	0x0030:  5858 5858 5858 5858 5858 5858 5858 5858
	0x0040:  5858 5858 5858 5858 5858 5858 5858 5858
	0x0050:  5858 5858 5858 5858 5858 5858 5858 5858
	0x0060:  5858 5858 5858 5858 5858 5858 5858 5858
	0x0070:  5858 5858 5858 5858 5858 5858 5858 5858
	0x0080:  5858 5858 5858 5858 5858 5858 5858 5858
	0x0090:  5858 5858 5858 5858 5858 5858 5858 5858
07:48:21.279848 IP 164.100.61.151.1516 > 52.94.228.167.http: Flags [S], seq 1446674092:1446674212, win 512, length 120: HTTP
	0x0000:  4500 00a0 8c00 0000 4006 f356 a464 3d97
	0x0010:  345e e4a7 05ec 0050 563a 7eac 60fb 440b
	0x0020:  5002 0200 7d8b 0000 5858 5858 5858 5858
	0x0030:  5858 5858 5858 5858 5858 5858 5858 5858
	0x0040:  5858 5858 5858 5858 5858 5858 5858 5858
	0x0050:  5858 5858 5858 5858 5858 5858 5858 5858
	0x0060:  5858 5858 5858 5858 5858 5858 5858 5858
	0x0070:  5858 5858 5858 5858 5858 5858 5858 5858
	0x0080:  5858 5858 5858 5858 5858 5858 5858 5858
	0x0090:  5858 5858 5858 5858 5858 5858 5858 5858
07:48:21.279868 IP 164.100.61.151.1517 > 52.94.228.167.http: Flags [S], seq 945243139:945243259, win 512, length 120: HTTP
	0x0000:  4500 00a0 ca1e 0000 4006 b538 a464 3d97
	0x0010:  345e e4a7 05ed 0050 3857 4403 410b be86
	0x0020:  5002 0200 7b8b 0000 5858 5858 5858 5858
	0x0030:  5858 5858 5858 5858 5858 5858 5858 5858
	0x0040:  5858 5858 5858 5858 5858 5858 5858 5858
	0x0050:  5858 5858 5858 5858 5858 5858 5858 5858
	0x0060:  5858 5858 5858 5858 5858 5858 5858 5858
	0x0070:  5858 5858 5858 5858 5858 5858 5858 5858
	0x0080:  5858 5858 5858 5858 5858 5858 5858 5858
	0x0090:  5858 5858 5858 5858 5858 5858 5858 5858
07:48:21.279887 IP 164.100.61.151.1518 > 52.94.228.167.http: Flags [S], seq 67952647:67952767, win 512, length 120: HTTP
	0x0000:  4500 00a0 8c85 0000 4006 f2d1 a464 3d97
	0x0010:  345e e4a7 05ee 0050 040c e007 41df 5150
	0x0020:  5002 0200 8033 0000 5858 5858 5858 5858
	0x0030:  5858 5858 5858 5858 5858 5858 5858 5858
	0x0040:  5858 5858 5858 5858 5858 5858 5858 5858
	0x0050:  5858 5858 5858 5858 5858 5858 5858 5858
	0x0060:  5858 5858 5858 5858 5858 5858 5858 5858
	0x0070:  5858 5858 5858 5858 5858 5858 5858 5858
	0x0080:  5858 5858 5858 5858 5858 5858 5858 5858
	0x0090:  5858 5858 5858 5858 5858 5858 5858 5858
07:48:21.279907 IP 164.100.61.151.1519 > 52.94.228.167.http: Flags [S], seq 1684914822:1684914942, win 512, length 120: HTTP
	0x0000:  4500 00a0 fbef 0000 4006 8367 a464 3d97
	0x0010:  345e e4a7 05ef 0050 646d c286 153b 3eca
	0x0020:  5002 0200 7c7c 0000 5858 5858 5858 5858
	0x0030:  5858 5858 5858 5858 5858 5858 5858 5858
	0x0040:  5858 5858 5858 5858 5858 5858 5858 5858
	0x0050:  5858 5858 5858 5858 5858 5858 5858 5858
	0x0060:  5858 5858 5858 5858 5858 5858 5858 5858
	0x0070:  5858 5858 5858 5858 5858 5858 5858 5858
	0x0080:  5858 5858 5858 5858 5858 5858 5858 5858
	0x0090:  5858 5858 5858 5858 5858 5858 5858 5858
07:48:21.279926 IP 164.100.61.151.1520 > 52.94.228.167.http: Flags [S], seq 1267109739:1267109859, win 512, length 120: HTTP
	0x0000:  4500 00a0 9cd1 0000 4006 e285 a464 3d97
	0x0010:  345e e4a7 05f0 0050 4b86 8f6b 6cc1 ea17
	0x0020:  5002 0200 c5a9 0000 5858 5858 5858 5858
	0x0030:  5858 5858 5858 5858 5858 5858 5858 5858
	0x0040:  5858 5858 5858 5858 5858 5858 5858 5858
	0x0050:  5858 5858 5858 5858 5858 5858 5858 5858
	0x0060:  5858 5858 5858 5858 5858 5858 5858 5858
	0x0070:  5858 5858 5858 5858 5858 5858 5858 5858
	0x0080:  5858 5858 5858 5858 5858 5858 5858 5858
	0x0090:  5858 5858 5858 5858 5858 5858 5858 5858
07:48:21.279946 IP 164.100.61.151.1521 > 52.94.228.167.http: Flags [S], seq 1743382226:1743382346, win 512, length 120: HTTP
	0x0000:  4500 00a0 8acc 0000 4006 f48a a464 3d97
	0x0010:  345e e4a7 05f1 0050 67e9 e6d2 3409 0117
	0x0020:  5002 0200 7397 0000 5858 5858 5858 5858
	0x0030:  5858 5858 5858 5858 5858 5858 5858 5858
	0x0040:  5858 5858 5858 5858 5858 5858 5858 5858
	0x0050:  5858 5858 5858 5858 5858 5858 5858 5858
	0x0060:  5858 5858 5858 5858 5858 5858 5858 5858
	0x0070:  5858 5858 5858 5858 5858 5858 5858 5858
	0x0080:  5858 5858 5858 5858 5858 5858 5858 5858
	0x0090:  5858 5858 5858 5858 5858 5858 5858 5858
07:48:21.279965 IP 164.100.61.151.1522 > 52.94.228.167.http: Flags [S], seq 1983682305:1983682425, win 512, length 120: HTTP
	0x0000:  4500 00a0 2629 0000 4006 592e a464 3d97
	0x0010:  345e e4a7 05f2 0050 763c 9701 507e f41f
	0x0020:  5002 0200 a596 0000 5858 5858 5858 5858
	0x0030:  5858 5858 5858 5858 5858 5858 5858 5858
	0x0040:  5858 5858 5858 5858 5858 5858 5858 5858
	0x0050:  5858 5858 5858 5858 5858 5858 5858 5858
	0x0060:  5858 5858 5858 5858 5858 5858 5858 5858
	0x0070:  5858 5858 5858 5858 5858 5858 5858 5858
	0x0080:  5858 5858 5858 5858 5858 5858 5858 5858
	0x0090:  5858 5858 5858 5858 5858 5858 5858 5858
07:48:21.279985 IP 164.100.61.151.1523 > 52.94.228.167.http: Flags [S], seq 485665276:485665396, win 512, length 120: HTTP
	0x0000:  4500 00a0 322d 0000 4006 4d2a a464 3d97
	0x0010:  345e e4a7 05f3 0050 1cf2 a9fc 5c6d a309
	0x0020:  5002 0200 310c 0000 5858 5858 5858 5858
	0x0030:  5858 5858 5858 5858 5858 5858 5858 5858
	0x0040:  5858 5858 5858 5858 5858 5858 5858 5858
	0x0050:  5858 5858 5858 5858 5858 5858 5858 5858
	0x0060:  5858 5858 5858 5858 5858 5858 5858 5858
	0x0070:  5858 5858 5858 5858 5858 5858 5858 5858
	0x0080:  5858 5858 5858 5858 5858 5858 5858 5858
	0x0090:  5858 5858 5858 5858 5858 5858 5858 5858
07:48:21.280004 IP 164.100.61.151.ingreslock > 52.94.228.167.http: Flags [S], seq 436319253:436319373, win 512, length 120: HTTP
	0x0000:  4500 00a0 5d03 0000 4006 2254 a464 3d97
	0x0010:  345e e4a7 05f4 0050 1a01 b415 4a7c 240f
	0x0020:  5002 0200 bace 0000 5858 5858 5858 5858
	0x0030:  5858 5858 5858 5858 5858 5858 5858 5858
	0x0040:  5858 5858 5858 5858 5858 5858 5858 5858
	0x0050:  5858 5858 5858 5858 5858 5858 5858 5858
	0x0060:  5858 5858 5858 5858 5858 5858 5858 5858
	0x0070:  5858 5858 5858 5858 5858 5858 5858 5858
	0x0080:  5858 5858 5858 5858 5858 5858 5858 5858
	0x0090:  5858 5858 5858 5858 5858 5858 5858 5858
07:48:21.280024 IP 164.100.61.151.prospero-np > 52.94.228.167.http: Flags [S], seq 166426534:166426654, win 512, length 120: HTTP
	0x0000:  4500 00a0 50b5 0000 4006 2ea2 a464 3d97
	0x0010:  345e e4a7 05f5 0050 09eb 77a6 12a1 84b6
	0x0020:  5002 0200 de86 0000 5858 5858 5858 5858
	0x0030:  5858 5858 5858 5858 5858 5858 5858 5858
	0x0040:  5858 5858 5858 5858 5858 5858 5858 5858
	0x0050:  5858 5858 5858 5858 5858 5858 5858 5858
	0x0060:  5858 5858 5858 5858 5858 5858 5858 5858
	0x0070:  5858 5858 5858 5858 5858 5858 5858 5858
	0x0080:  5858 5858 5858 5858 5858 5858 5858 5858
	0x0090:  5858 5858 5858 5858 5858 5858 5858 5858
07:48:21.280043 IP 164.100.61.151.1526 > 52.94.228.167.http: Flags [S], seq 88136788:88136908, win 512, length 120: HTTP
	0x0000:  4500 00a0 94c1 0000 4006 ea95 a464 3d97
	0x0010:  345e e4a7 05f6 0050 0540 dc54 68dc 0362
	0x0020:  5002 0200 a99b 0000 5858 5858 5858 5858
	0x0030:  5858 5858 5858 5858 5858 5858 5858 5858
	0x0040:  5858 5858 5858 5858 5858 5858 5858 5858
	0x0050:  5858 5858 5858 5858 5858 5858 5858 5858
	0x0060:  5858 5858 5858 5858 5858 5858 5858 5858
	0x0070:  5858 5858 5858 5858 5858 5858 5858 5858
	0x0080:  5858 5858 5858 5858 5858 5858 5858 5858
	0x0090:  5858 5858 5858 5858 5858 5858 5858 5858
07:48:21.280060 IP 164.100.61.151.1527 > 52.94.228.167.http: Flags [S], seq 92498004:92498124, win 512, length 120: HTTP
	0x0000:  4500 00a0 5347 0000 4006 2c10 a464 3d97
	0x0010:  345e e4a7 05f7 0050 0583 6854 2133 4766
	0x0020:  5002 0200 20fd 0000 5858 5858 5858 5858
	0x0030:  5858 5858 5858 5858 5858 5858 5858 5858
	0x0040:  5858 5858 5858 5858 5858 5858 5858 5858
	0x0050:  5858 5858 5858 5858 5858 5858 5858 5858
	0x0060:  5858 5858 5858 5858 5858 5858 5858 5858
	0x0070:  5858 5858 5858 5858 5858 5858 5858 5858
	0x0080:  5858 5858 5858 5858 5858 5858 5858 5858
	0x0090:  5858 5858 5858 5858 5858 5858 5858 5858
07:48:21.280077 IP 164.100.61.151.1528 > 52.94.228.167.http: Flags [S], seq 26554994:26555114, win 512, length 120: HTTP
	0x0000:  4500 00a0 a498 0000 4006 dabe a464 3d97
	0x0010:  345e e4a7 05f8 0050 0195 3272 2540 276d
	0x0020:  5002 0200 76b8 0000 5858 5858 5858 5858
	0x0030:  5858 5858 5858 5858 5858 5858 5858 5858
	0x0040:  5858 5858 5858 5858 5858 5858 5858 5858
	0x0050:  5858 5858 5858 5858 5858 5858 5858 5858
	0x0060:  5858 5858 5858 5858 5858 5858 5858 5858
	0x0070:  5858 5858 5858 5858 5858 5858 5858 5858
	0x0080:  5858 5858 5858 5858 5858 5858 5858 5858
	0x0090:  5858 5858 5858 5858 5858 5858 5858 5858
07:48:21.280094 IP 164.100.61.151.support > 52.94.228.167.http: Flags [S], seq 1693892343:1693892463, win 512, length 120: HTTP
	0x0000:  4500 00a0 e362 0000 4006 9bf4 a464 3d97
	0x0010:  345e e4a7 05f9 0050 64f6 bef7 09ad e9f3
	0x0020:  5002 0200 dfdc 0000 5858 5858 5858 5858
	0x0030:  5858 5858 5858 5858 5858 5858 5858 5858
	0x0040:  5858 5858 5858 5858 5858 5858 5858 5858
	0x0050:  5858 5858 5858 5858 5858 5858 5858 5858
	0x0060:  5858 5858 5858 5858 5858 5858 5858 5858
	0x0070:  5858 5858 5858 5858 5858 5858 5858 5858
	0x0080:  5858 5858 5858 5858 5858 5858 5858 5858
	0x0090:  5858 5858 5858 5858 5858 5858 5858 5858
07:48:21.280111 IP 164.100.61.151.1530 > 52.94.228.167.http: Flags [S], seq 1058126566:1058126686, win 512, length 120: HTTP
	0x0000:  4500 00a0 cd79 0000 4006 b1dd a464 3d97
	0x0010:  345e e4a7 05fa 0050 3f11 bae6 5534 795e
	0x0020:  5002 0200 2ee0 0000 5858 5858 5858 5858
	0x0030:  5858 5858 5858 5858 5858 5858 5858 5858
	0x0040:  5858 5858 5858 5858 5858 5858 5858 5858
	0x0050:  5858 5858 5858 5858 5858 5858 5858 5858
	0x0060:  5858 5858 5858 5858 5858 5858 5858 5858
	0x0070:  5858 5858 5858 5858 5858 5858 5858 5858
	0x0080:  5858 5858 5858 5858 5858 5858 5858 5858
	0x0090:  5858 5858 5858 5858 5858 5858 5858 5858
07:48:21.280128 IP 164.100.61.151.1531 > 52.94.228.167.http: Flags [S], seq 476272567:476272687, win 512, length 120: HTTP
	0x0000:  4500 00a0 ce90 0000 4006 b0c6 a464 3d97
	0x0010:  345e e4a7 05fb 0050 1c63 57b7 3d1e 6031
	0x0020:  5002 0200 e5ff 0000 5858 5858 5858 5858
	0x0030:  5858 5858 5858 5858 5858 5858 5858 5858
	0x0040:  5858 5858 5858 5858 5858 5858 5858 5858
	0x0050:  5858 5858 5858 5858 5858 5858 5858 5858
	0x0060:  5858 5858 5858 5858 5858 5858 5858 5858
	0x0070:  5858 5858 5858 5858 5858 5858 5858 5858
	0x0080:  5858 5858 5858 5858 5858 5858 5858 5858
	0x0090:  5858 5858 5858 5858 5858 5858 5858 5858
07:48:21.280144 IP 164.100.61.151.1532 > 52.94.228.167.http: Flags [S], seq 1679155844:1679155964, win 512, length 120: HTTP
	0x0000:  4500 00a0 c2af 0000 4006 bca7 a464 3d97
	0x0010:  345e e4a7 05fc 0050 6415 e284 335a f732
	0x0020:  5002 0200 8641 0000 5858 5858 5858 5858
	0x0030:  5858 5858 5858 5858 5858 5858 5858 5858
	0x0040:  5858 5858 5858 5858 5858 5858 5858 5858
	0x0050:  5858 5858 5858 5858 5858 5858 5858 5858
	0x0060:  5858 5858 5858 5858 5858 5858 5858 5858
	0x0070:  5858 5858 5858 5858 5858 5858 5858 5858
	0x0080:  5858 5858 5858 5858 5858 5858 5858 5858
	0x0090:  5858 5858 5858 5858 5858 5858 5858 5858
07:48:21.280161 IP 164.100.61.151.1533 > 52.94.228.167.http: Flags [S], seq 487065773:487065893, win 512, length 120: HTTP
	0x0000:  4500 00a0 65b9 0000 4006 199e a464 3d97
	0x0010:  345e e4a7 05fd 0050 1d08 08ad 504d a12f
	0x0020:  5002 0200 e035 0000 5858 5858 5858 5858
	0x0030:  5858 5858 5858 5858 5858 5858 5858 5858
	0x0040:  5858 5858 5858 5858 5858 5858 5858 5858
	0x0050:  5858 5858 5858 5858 5858 5858 5858 5858
	0x0060:  5858 5858 5858 5858 5858 5858 5858 5858
	0x0070:  5858 5858 5858 5858 5858 5858 5858 5858
	0x0080:  5858 5858 5858 5858 5858 5858 5858 5858
	0x0090:  5858 5858 5858 5858 5858 5858 5858 5858
07:48:21.280177 IP 164.100.61.151.1534 > 52.94.228.167.http: Flags [S], seq 750271194:750271314, win 512, length 120: HTTP
	0x0000:  4500 00a0 89c8 0000 4006 f58e a464 3d97
	0x0010:  345e e4a7 05fe 0050 2cb8 3ada 6a4f 5544
	0x0020:  5002 0200 d040 0000 5858 5858 5858 5858
	0x0030:  5858 5858 5858 5858 5858 5858 5858 5858
	0x0040:  5858 5858 5858 5858 5858 5858 5858 5858
	0x0050:  5858 5858 5858 5858 5858 5858 5858 5858
	0x0060:  5858 5858 5858 5858 5858 5858 5858 5858
	0x0070:  5858 5858 5858 5858 5858 5858 5858 5858
	0x0080:  5858 5858 5858 5858 5858 5858 5858 5858
	0x0090:  5858 5858 5858 5858 5858 5858 5858 5858
07:48:21.280194 IP 164.100.61.151.1535 > 52.94.228.167.http: Flags [S], seq 667260894:667261014, win 512, length 120: HTTP
	0x0000:  4500 00a0 0e7e 0000 4006 70d9 a464 3d97
	0x0010:  345e e4a7 05ff 0050 27c5 97de 743a cceb
	0x0020:  5002 0200 f69b 0000 5858 5858 5858 5858
	0x0030:  5858 5858 5858 5858 5858 5858 5858 5858
	0x0040:  5858 5858 5858 5858 5858 5858 5858 5858
	0x0050:  5858 5858 5858 5858 5858 5858 5858 5858
	0x0060:  5858 5858 5858 5858 5858 5858 5858 5858
	0x0070:  5858 5858 5858 5858 5858 5858 5858 5858
	0x0080:  5858 5858 5858 5858 5858 5858 5858 5858
	0x0090:  5858 5858 5858 5858 5858 5858 5858 5858
07:48:21.280211 IP 164.100.61.151.1536 > 52.94.228.167.http: Flags [S], seq 1866328211:1866328331, win 512, length 120: HTTP
	0x0000:  4500 00a0 11e1 0000 4006 6d76 a464 3d97
	0x0010:  345e e4a7 0600 0050 6f3d e893 797b a93f
	0x0020:  5002 0200 7cd8 0000 5858 5858 5858 5858
	0x0030:  5858 5858 5858 5858 5858 5858 5858 5858
	0x0040:  5858 5858 5858 5858 5858 5858 5858 5858
	0x0050:  5858 5858 5858 5858 5858 5858 5858 5858
	0x0060:  5858 5858 5858 5858 5858 5858 5858 5858
	0x0070:  5858 5858 5858 5858 5858 5858 5858 5858
	0x0080:  5858 5858 5858 5858 5858 5858 5858 5858
	0x0090:  5858 5858 5858 5858 5858 5858 5858 5858
07:48:21.280228 IP 164.100.61.151.1537 > 52.94.228.167.http: Flags [S], seq 397507924:397508044, win 512, length 120: HTTP
	0x0000:  4500 00a0 5947 0000 4006 2610 a464 3d97
	0x0010:  345e e4a7 0601 0050 17b1 7d54 7eff 1193
	0x0020:  5002 0200 d1cb 0000 5858 5858 5858 5858
	0x0030:  5858 5858 5858 5858 5858 5858 5858 5858
	0x0040:  5858 5858 5858 5858 5858 5858 5858 5858
	0x0050:  5858 5858 5858 5858 5858 5858 5858 5858
	0x0060:  5858 5858 5858 5858 5858 5858 5858 5858
	0x0070:  5858 5858 5858 5858 5858 5858 5858 5858
	0x0080:  5858 5858 5858 5858 5858 5858 5858 5858
	0x0090:  5858 5858 5858 5858 5858 5858 5858 5858
07:48:21.280245 IP 164.100.61.151.1538 > 52.94.228.167.http: Flags [S], seq 19976348:19976468, win 512, length 120: HTTP
	0x0000:  4500 00a0 80b4 0000 4006 fea2 a464 3d97
	0x0010:  345e e4a7 0602 0050 0130 d09c 0094 4405
	0x0020:  5002 0200 e0fc 0000 5858 5858 5858 5858
	0x0030:  5858 5858 5858 5858 5858 5858 5858 5858
	0x0040:  5858 5858 5858 5858 5858 5858 5858 5858
	0x0050:  5858 5858 5858 5858 5858 5858 5858 5858
	0x0060:  5858 5858 5858 5858 5858 5858 5858 5858
	0x0070:  5858 5858 5858 5858 5858 5858 5858 5858
	0x0080:  5858 5858 5858 5858 5858 5858 5858 5858
	0x0090:  5858 5858 5858 5858 5858 5858 5858 5858
07:48:21.280261 IP 164.100.61.151.1539 > 52.94.228.167.http: Flags [S], seq 747599156:747599276, win 512, length 120: HTTP
	0x0000:  4500 00a0 6aa7 0000 4006 14b0 a464 3d97
	0x0010:  345e e4a7 0603 0050 2c8f 7534 658b 02fc
	0x0020:  5002 0200 ed16 0000 5858 5858 5858 5858
	0x0030:  5858 5858 5858 5858 5858 5858 5858 5858
	0x0040:  5858 5858 5858 5858 5858 5858 5858 5858
	0x0050:  5858 5858 5858 5858 5858 5858 5858 5858
	0x0060:  5858 5858 5858 5858 5858 5858 5858 5858
	0x0070:  5858 5858 5858 5858 5858 5858 5858 5858
	0x0080:  5858 5858 5858 5858 5858 5858 5858 5858
	0x0090:  5858 5858 5858 5858 5858 5858 5858 5858
07:48:21.280279 IP 164.100.61.151.1540 > 52.94.228.167.http: Flags [S], seq 1831426198:1831426318, win 512, length 120: HTTP
	0x0000:  4500 00a0 e405 0000 4006 9b51 a464 3d97
	0x0010:  345e e4a7 0604 0050 6d29 5896 249c bde3
	0x0020:  5002 0200 4f21 0000 5858 5858 5858 5858
	0x0030:  5858 5858 5858 5858 5858 5858 5858 5858
	0x0040:  5858 5858 5858 5858 5858 5858 5858 5858
	0x0050:  5858 5858 5858 5858 5858 5858 5858 5858
	0x0060:  5858 5858 5858 5858 5858 5858 5858 5858
	0x0070:  5858 5858 5858 5858 5858 5858 5858 5858
	0x0080:  5858 5858 5858 5858 5858 5858 5858 5858
	0x0090:  5858 5858 5858 5858 5858 5858 5858 5858
07:48:21.280296 IP 164.100.61.151.1541 > 52.94.228.167.http: Flags [S], seq 444933647:444933767, win 512, length 120: HTTP
	0x0000:  4500 00a0 4436 0000 4006 3b21 a464 3d97
	0x0010:  345e e4a7 0605 0050 1a85 260f 4100 159a
	0x0020:  5002 0200 6031 0000 5858 5858 5858 5858
	0x0030:  5858 5858 5858 5858 5858 5858 5858 5858
	0x0040:  5858 5858 5858 5858 5858 5858 5858 5858
	0x0050:  5858 5858 5858 5858 5858 5858 5858 5858
	0x0060:  5858 5858 5858 5858 5858 5858 5858 5858
	0x0070:  5858 5858 5858 5858 5858 5858 5858 5858
	0x0080:  5858 5858 5858 5858 5858 5858 5858 5858
	0x0090:  5858 5858 5858 5858 5858 5858 5858 5858
07:48:21.280312 IP 164.100.61.151.1542 > 52.94.228.167.http: Flags [S], seq 2078930080:2078930200, win 512, length 120: HTTP
	0x0000:  4500 00a0 3b69 0000 4006 43ee a464 3d97
	0x0010:  345e e4a7 0606 0050 7be9 f4a0 2515 f81e
	0x0020:  5002 0200 69a0 0000 5858 5858 5858 5858
	0x0030:  5858 5858 5858 5858 5858 5858 5858 5858
	0x0040:  5858 5858 5858 5858 5858 5858 5858 5858
	0x0050:  5858 5858 5858 5858 5858 5858 5858 5858
	0x0060:  5858 5858 5858 5858 5858 5858 5858 5858
	0x0070:  5858 5858 5858 5858 5858 5858 5858 5858
	0x0080:  5858 5858 5858 5858 5858 5858 5858 5858
	0x0090:  5858 5858 5858 5858 5858 5858 5858 5858
07:48:21.280329 IP 164.100.61.151.1543 > 52.94.228.167.http: Flags [S], seq 768456527:768456647, win 512, length 120: HTTP
	0x0000:  4500 00a0 dc98 0000 4006 a2be a464 3d97
	0x0010:  345e e4a7 0607 0050 2dcd b74f 421e 00cb
	0x0020:  5002 0200 cf57 0000 5858 5858 5858 5858
	0x0030:  5858 5858 5858 5858 5858 5858 5858 5858
	0x0040:  5858 5858 5858 5858 5858 5858 5858 5858
	0x0050:  5858 5858 5858 5858 5858 5858 5858 5858
	0x0060:  5858 5858 5858 5858 5858 5858 5858 5858
	0x0070:  5858 5858 5858 5858 5858 5858 5858 5858
	0x0080:  5858 5858 5858 5858 5858 5858 5858 5858
	0x0090:  5858 5858 5858 5858 5858 5858 5858 5858
07:48:21.280352 IP 164.100.61.151.1544 > 52.94.228.167.http: Flags [S], seq 1008672008:1008672128, win 512, length 120: HTTP
	0x0000:  4500 00a0 31dc 0000 4006 4d7b a464 3d97
	0x0010:  345e e4a7 0608 0050 3c1f 1d08 6ed6 3ba6
	0x0020:  5002 0200 f3b8 0000 5858 5858 5858 5858
	0x0030:  5858 5858 5858 5858 5858 5858 5858 5858
	0x0040:  5858 5858 5858 5858 5858 5858 5858 5858
	0x0050:  5858 5858 5858 5858 5858 5858 5858 5858
	0x0060:  5858 5858 5858 5858 5858 5858 5858 5858
	0x0070:  5858 5858 5858 5858 5858 5858 5858 5858
	0x0080:  5858 5858 5858 5858 5858 5858 5858 5858
	0x0090:  5858 5858 5858 5858 5858 5858 5858 5858
07:48:21.280369 IP 164.100.61.151.1545 > 52.94.228.167.http: Flags [S], seq 351053520:351053640, win 512, length 120: HTTP
	0x0000:  4500 00a0 fec7 0000 4006 808f a464 3d97
	0x0010:  345e e4a7 0609 0050 14ec a6d0 169b d384
	0x0020:  5002 0200 517f 0000 5858 5858 5858 5858
	0x0030:  5858 5858 5858 5858 5858 5858 5858 5858
	0x0040:  5858 5858 5858 5858 5858 5858 5858 5858
	0x0050:  5858 5858 5858 5858 5858 5858 5858 5858
	0x0060:  5858 5858 5858 5858 5858 5858 5858 5858
	0x0070:  5858 5858 5858 5858 5858 5858 5858 5858
	0x0080:  5858 5858 5858 5858 5858 5858 5858 5858
	0x0090:  5858 5858 5858 5858 5858 5858 5858 5858
07:48:21.280386 IP 164.100.61.151.1546 > 52.94.228.167.http: Flags [S], seq 6010191:6010311, win 512, length 120: HTTP
	0x0000:  4500 00a0 a806 0000 4006 d750 a464 3d97
	0x0010:  345e e4a7 060a 0050 005b b54f 05d9 bc17
	0x0020:  5002 0200 7fbf 0000 5858 5858 5858 5858
	0x0030:  5858 5858 5858 5858 5858 5858 5858 5858
	0x0040:  5858 5858 5858 5858 5858 5858 5858 5858
	0x0050:  5858 5858 5858 5858 5858 5858 5858 5858
	0x0060:  5858 5858 5858 5858 5858 5858 5858 5858
	0x0070:  5858 5858 5858 5858 5858 5858 5858 5858
	0x0080:  5858 5858 5858 5858 5858 5858 5858 5858
	0x0090:  5858 5858 5858 5858 5858 5858 5858 5858
07:48:21.280403 IP 164.100.61.151.1547 > 52.94.228.167.http: Flags [S], seq 1420216112:1420216232, win 512, length 120: HTTP
	0x0000:  4500 00a0 b999 0000 4006 c5bd a464 3d97
	0x0010:  345e e4a7 060b 0050 54a6 c730 1d8b 396c
	0x0020:  5002 0200 848b 0000 5858 5858 5858 5858
	0x0030:  5858 5858 5858 5858 5858 5858 5858 5858
	0x0040:  5858 5858 5858 5858 5858 5858 5858 5858
	0x0050:  5858 5858 5858 5858 5858 5858 5858 5858
	0x0060:  5858 5858 5858 5858 5858 5858 5858 5858
	0x0070:  5858 5858 5858 5858 5858 5858 5858 5858
	0x0080:  5858 5858 5858 5858 5858 5858 5858 5858
	0x0090:  5858 5858 5858 5858 5858 5858 5858 5858
07:48:21.280420 IP 164.100.61.151.1548 > 52.94.228.167.http: Flags [S], seq 1243947127:1243947247, win 512, length 120: HTTP
	0x0000:  4500 00a0 fd9e 0000 4006 81b8 a464 3d97
	0x0010:  345e e4a7 060c 0050 4a25 2077 1ebc 0a08
	0x0020:  5002 0200 63f8 0000 5858 5858 5858 5858
	0x0030:  5858 5858 5858 5858 5858 5858 5858 5858
	0x0040:  5858 5858 5858 5858 5858 5858 5858 5858
	0x0050:  5858 5858 5858 5858 5858 5858 5858 5858
	0x0060:  5858 5858 5858 5858 5858 5858 5858 5858
	0x0070:  5858 5858 5858 5858 5858 5858 5858 5858
	0x0080:  5858 5858 5858 5858 5858 5858 5858 5858
	0x0090:  5858 5858 5858 5858 5858 5858 5858 5858
07:48:21.280436 IP 164.100.61.151.1549 > 52.94.228.167.http: Flags [S], seq 1692639531:1692639651, win 512, length 120: HTTP
	0x0000:  4500 00a0 009b 0000 4006 7ebc a464 3d97
	0x0010:  345e e4a7 060d 0050 64e3 a12b 4b4b 7f3c
	0x0020:  5002 0200 26c1 0000 5858 5858 5858 5858
	0x0030:  5858 5858 5858 5858 5858 5858 5858 5858
	0x0040:  5858 5858 5858 5858 5858 5858 5858 5858
	0x0050:  5858 5858 5858 5858 5858 5858 5858 5858
	0x0060:  5858 5858 5858 5858 5858 5858 5858 5858
	0x0070:  5858 5858 5858 5858 5858 5858 5858 5858
	0x0080:  5858 5858 5858 5858 5858 5858 5858 5858
	0x0090:  5858 5858 5858 5858 5858 5858 5858 5858
07:48:21.280453 IP 164.100.61.151.1550 > 52.94.228.167.http: Flags [S], seq 156240850:156240970, win 512, length 120: HTTP
	0x0000:  4500 00a0 be7e 0000 4006 c0d8 a464 3d97
	0x0010:  345e e4a7 060e 0050 0950 0bd2 3874 d7d2
	0x0020:  5002 0200 d1ed 0000 5858 5858 5858 5858
	0x0030:  5858 5858 5858 5858 5858 5858 5858 5858
	0x0040:  5858 5858 5858 5858 5858 5858 5858 5858
	0x0050:  5858 5858 5858 5858 5858 5858 5858 5858
	0x0060:  5858 5858 5858 5858 5858 5858 5858 5858
	0x0070:  5858 5858 5858 5858 5858 5858 5858 5858
	0x0080:  5858 5858 5858 5858 5858 5858 5858 5858
	0x0090:  5858 5858 5858 5858 5858 5858 5858 5858
07:48:21.280469 IP 164.100.61.151.1551 > 52.94.228.167.http: Flags [S], seq 49344471:49344591, win 512, length 120: HTTP
	0x0000:  4500 00a0 d418 0000 4006 ab3e a464 3d97
	0x0010:  345e e4a7 060f 0050 02f0 efd7 52f9 fde1
	0x0020:  5002 0200 b3b2 0000 5858 5858 5858 5858
	0x0030:  5858 5858 5858 5858 5858 5858 5858 5858
	0x0040:  5858 5858 5858 5858 5858 5858 5858 5858
	0x0050:  5858 5858 5858 5858 5858 5858 5858 5858
	0x0060:  5858 5858 5858 5858 5858 5858 5858 5858
	0x0070:  5858 5858 5858 5858 5858 5858 5858 5858
	0x0080:  5858 5858 5858 5858 5858 5858 5858 5858
	0x0090:  5858 5858 5858 5858 5858 5858 5858 5858
07:48:21.280487 IP 164.100.61.151.1552 > 52.94.228.167.http: Flags [S], seq 967848974:967849094, win 512, length 120: HTTP
	0x0000:  4500 00a0 cc37 0000 4006 b31f a464 3d97
	0x0010:  345e e4a7 0610 0050 39b0 340e 4ee3 f281
	0x0020:  5002 0200 4831 0000 5858 5858 5858 5858
	0x0030:  5858 5858 5858 5858 5858 5858 5858 5858
	0x0040:  5858 5858 5858 5858 5858 5858 5858 5858
	0x0050:  5858 5858 5858 5858 5858 5858 5858 5858
	0x0060:  5858 5858 5858 5858 5858 5858 5858 5858
	0x0070:  5858 5858 5858 5858 5858 5858 5858 5858
	0x0080:  5858 5858 5858 5858 5858 5858 5858 5858
	0x0090:  5858 5858 5858 5858 5858 5858 5858 5858
07:48:21.280504 IP 164.100.61.151.1553 > 52.94.228.167.http: Flags [S], seq 600469367:600469487, win 512, length 120: HTTP
	0x0000:  4500 00a0 cd02 0000 4006 b254 a464 3d97
	0x0010:  345e e4a7 0611 0050 23ca 6f77 7cb1 a9d1
	0x0020:  5002 0200 3d8f 0000 5858 5858 5858 5858
	0x0030:  5858 5858 5858 5858 5858 5858 5858 5858
	0x0040:  5858 5858 5858 5858 5858 5858 5858 5858
	0x0050:  5858 5858 5858 5858 5858 5858 5858 5858
	0x0060:  5858 5858 5858 5858 5858 5858 5858 5858
	0x0070:  5858 5858 5858 5858 5858 5858 5858 5858
	0x0080:  5858 5858 5858 5858 5858 5858 5858 5858
	0x0090:  5858 5858 5858 5858 5858 5858 5858 5858
07:48:21.280520 IP 164.100.61.151.1554 > 52.94.228.167.http: Flags [S], seq 1580354575:1580354695, win 512, length 120: HTTP
	0x0000:  4500 00a0 08a8 0000 4006 76af a464 3d97
	0x0010:  345e e4a7 0612 0050 5e32 4c0f 38d0 c6d9
	0x0020:  5002 0200 4d67 0000 5858 5858 5858 5858
	0x0030:  5858 5858 5858 5858 5858 5858 5858 5858
	0x0040:  5858 5858 5858 5858 5858 5858 5858 5858
	0x0050:  5858 5858 5858 5858 5858 5858 5858 5858
	0x0060:  5858 5858 5858 5858 5858 5858 5858 5858
	0x0070:  5858 5858 5858 5858 5858 5858 5858 5858
	0x0080:  5858 5858 5858 5858 5858 5858 5858 5858
	0x0090:  5858 5858 5858 5858 5858 5858 5858 5858
07:48:21.280537 IP 164.100.61.151.1555 > 52.94.228.167.http: Flags [S], seq 48856555:48856675, win 512, length 120: HTTP
	0x0000:  4500 00a0 dc2c 0000 4006 a32a a464 3d97
	0x0010:  345e e4a7 0613 0050 02e9 7deb 4dbd 6daa
	0x0020:  5002 0200 bb15 0000 5858 5858 5858 5858
	0x0030:  5858 5858 5858 5858 5858 5858 5858 5858
	0x0040:  5858 5858 5858 5858 5858 5858 5858 5858
	0x0050:  5858 5858 5858 5858 5858 5858 5858 5858
	0x0060:  5858 5858 5858 5858 5858 5858 5858 5858
	0x0070:  5858 5858 5858 5858 5858 5858 5858 5858
	0x0080:  5858 5858 5858 5858 5858 5858 5858 5858
	0x0090:  5858 5858 5858 5858 5858 5858 5858 5858
07:48:21.280553 IP 164.100.61.151.1556 > 52.94.228.167.http: Flags [S], seq 467369139:467369259, win 512, length 120: HTTP
	0x0000:  4500 00a0 9844 0000 4006 e712 a464 3d97
	0x0010:  345e e4a7 0614 0050 1bdb 7cb3 4e19 22f9
	0x0020:  5002 0200 edaf 0000 5858 5858 5858 5858
	0x0030:  5858 5858 5858 5858 5858 5858 5858 5858
	0x0040:  5858 5858 5858 5858 5858 5858 5858 5858
	0x0050:  5858 5858 5858 5858 5858 5858 5858 5858
	0x0060:  5858 5858 5858 5858 5858 5858 5858 5858
	0x0070:  5858 5858 5858 5858 5858 5858 5858 5858
	0x0080:  5858 5858 5858 5858 5858 5858 5858 5858
	0x0090:  5858 5858 5858 5858 5858 5858 5858 5858
07:48:21.280570 IP 164.100.61.151.1557 > 52.94.228.167.http: Flags [S], seq 776545465:776545585, win 512, length 120: HTTP
	0x0000:  4500 00a0 d1b0 0000 4006 ada6 a464 3d97
	0x0010:  345e e4a7 0615 0050 2e49 24b9 22bf ea29
	0x0020:  5002 0200 9764 0000 5858 5858 5858 5858
	0x0030:  5858 5858 5858 5858 5858 5858 5858 5858
	0x0040:  5858 5858 5858 5858 5858 5858 5858 5858
	0x0050:  5858 5858 5858 5858 5858 5858 5858 5858
	0x0060:  5858 5858 5858 5858 5858 5858 5858 5858
	0x0070:  5858 5858 5858 5858 5858 5858 5858 5858
	0x0080:  5858 5858 5858 5858 5858 5858 5858 5858
	0x0090:  5858 5858 5858 5858 5858 5858 5858 5858
07:48:21.280586 IP 164.100.61.151.1558 > 52.94.228.167.http: Flags [S], seq 1068883539:1068883659, win 512, length 120: HTTP
	0x0000:  4500 00a0 dbb8 0000 4006 a39e a464 3d97
	0x0010:  345e e4a7 0616 0050 3fb5 de53 6ce5 0aa0
	0x0020:  5002 0200 61c0 0000 5858 5858 5858 5858
	0x0030:  5858 5858 5858 5858 5858 5858 5858 5858
	0x0040:  5858 5858 5858 5858 5858 5858 5858 5858
	0x0050:  5858 5858 5858 5858 5858 5858 5858 5858
	0x0060:  5858 5858 5858 5858 5858 5858 5858 5858
	0x0070:  5858 5858 5858 5858 5858 5858 5858 5858
	0x0080:  5858 5858 5858 5858 5858 5858 5858 5858
	0x0090:  5858 5858 5858 5858 5858 5858 5858 5858
07:48:21.280603 IP 164.100.61.151.1559 > 52.94.228.167.http: Flags [S], seq 1370938353:1370938473, win 512, length 120: HTTP
	0x0000:  4500 00a0 5af4 0000 4006 2463 a464 3d97
	0x0010:  345e e4a7 0617 0050 51b6 dbf1 51c8 abcb
	0x0020:  5002 0200 cc11 0000 5858 5858 5858 5858
	0x0030:  5858 5858 5858 5858 5858 5858 5858 5858
	0x0040:  5858 5858 5858 5858 5858 5858 5858 5858
	0x0050:  5858 5858 5858 5858 5858 5858 5858 5858
	0x0060:  5858 5858 5858 5858 5858 5858 5858 5858
	0x0070:  5858 5858 5858 5858 5858 5858 5858 5858
	0x0080:  5858 5858 5858 5858 5858 5858 5858 5858
	0x0090:  5858 5858 5858 5858 5858 5858 5858 5858
07:48:21.280620 IP 164.100.61.151.1560 > 52.94.228.167.http: Flags [S], seq 1229118604:1229118724, win 512, length 120: HTTP
	0x0000:  4500 00a0 32c6 0000 4006 4c91 a464 3d97
	0x0010:  345e e4a7 0618 0050 4942 dc8c 5b18 b79d
	0x0020:  5002 0200 bec7 0000 5858 5858 5858 5858
	0x0030:  5858 5858 5858 5858 5858 5858 5858 5858
	0x0040:  5858 5858 5858 5858 5858 5858 5858 5858
	0x0050:  5858 5858 5858 5858 5858 5858 5858 5858
	0x0060:  5858 5858 5858 5858 5858 5858 5858 5858
	0x0070:  5858 5858 5858 5858 5858 5858 5858 5858
	0x0080:  5858 5858 5858 5858 5858 5858 5858 5858
	0x0090:  5858 5858 5858 5858 5858 5858 5858 5858
07:48:21.280636 IP 164.100.61.151.1561 > 52.94.228.167.http: Flags [S], seq 1701550858:1701550978, win 512, length 120: HTTP
	0x0000:  4500 00a0 30a7 0000 4006 4eb0 a464 3d97
	0x0010:  345e e4a7 0619 0050 656b 9b0a 5e09 a774
	0x0020:  5002 0200 f157 0000 5858 5858 5858 5858
	0x0030:  5858 5858 5858 5858 5858 5858 5858 5858
	0x0040:  5858 5858 5858 5858 5858 5858 5858 5858
	0x0050:  5858 5858 5858 5858 5858 5858 5858 5858
	0x0060:  5858 5858 5858 5858 5858 5858 5858 5858
	0x0070:  5858 5858 5858 5858 5858 5858 5858 5858
	0x0080:  5858 5858 5858 5858 5858 5858 5858 5858
	0x0090:  5858 5858 5858 5858 5858 5858 5858 5858
07:48:21.280653 IP 164.100.61.151.1562 > 52.94.228.167.http: Flags [S], seq 1117024035:1117024155, win 512, length 120: HTTP
	0x0000:  4500 00a0 2329 0000 4006 5c2e a464 3d97
	0x0010:  345e e4a7 061a 0050 4294 6f23 17b9 db82
	0x0020:  5002 0200 5257 0000 5858 5858 5858 5858
	0x0030:  5858 5858 5858 5858 5858 5858 5858 5858
	0x0040:  5858 5858 5858 5858 5858 5858 5858 5858
	0x0050:  5858 5858 5858 5858 5858 5858 5858 5858
	0x0060:  5858 5858 5858 5858 5858 5858 5858 5858
	0x0070:  5858 5858 5858 5858 5858 5858 5858 5858
	0x0080:  5858 5858 5858 5858 5858 5858 5858 5858
	0x0090:  5858 5858 5858 5858 5858 5858 5858 5858
07:48:21.280678 IP 164.100.61.151.1563 > 52.94.228.167.http: Flags [S], seq 1154693978:1154694098, win 512, length 120: HTTP
	0x0000:  4500 00a0 ccfa 0000 4006 b25c a464 3d97
	0x0010:  345e e4a7 061b 0050 44d3 3b5a 3b84 4af9
	0x0020:  5002 0200 f09e 0000 5858 5858 5858 5858
	0x0030:  5858 5858 5858 5858 5858 5858 5858 5858
	0x0040:  5858 5858 5858 5858 5858 5858 5858 5858
	0x0050:  5858 5858 5858 5858 5858 5858 5858 5858
	0x0060:  5858 5858 5858 5858 5858 5858 5858 5858
	0x0070:  5858 5858 5858 5858 5858 5858 5858 5858
	0x0080:  5858 5858 5858 5858 5858 5858 5858 5858
	0x0090:  5858 5858 5858 5858 5858 5858 5858 5858
07:48:21.280694 IP 164.100.61.151.1564 > 52.94.228.167.http: Flags [S], seq 154142812:154142932, win 512, length 120: HTTP
	0x0000:  4500 00a0 93d3 0000 4006 eb83 a464 3d97
	0x0010:  345e e4a7 061c 0050 0930 085c 19b6 9708
	0x0020:  5002 0200 34fe 0000 5858 5858 5858 5858
	0x0030:  5858 5858 5858 5858 5858 5858 5858 5858
	0x0040:  5858 5858 5858 5858 5858 5858 5858 5858
	0x0050:  5858 5858 5858 5858 5858 5858 5858 5858
	0x0060:  5858 5858 5858 5858 5858 5858 5858 5858
	0x0070:  5858 5858 5858 5858 5858 5858 5858 5858
	0x0080:  5858 5858 5858 5858 5858 5858 5858 5858
	0x0090:  5858 5858 5858 5858 5858 5858 5858 5858
07:48:21.280711 IP 164.100.61.151.1565 > 52.94.228.167.http: Flags [S], seq 1013125381:1013125501, win 512, length 120: HTTP
	0x0000:  4500 00a0 017d 0000 4006 7dda a464 3d97
	0x0010:  345e e4a7 061d 0050 3c63 1105 1ca0 14f4
	0x0020:  5002 0200 784b 0000 5858 5858 5858 5858
	0x0030:  5858 5858 5858 5858 5858 5858 5858 5858
	0x0040:  5858 5858 5858 5858 5858 5858 5858 5858
	0x0050:  5858 5858 5858 5858 5858 5858 5858 5858
	0x0060:  5858 5858 5858 5858 5858 5858 5858 5858
	0x0070:  5858 5858 5858 5858 5858 5858 5858 5858
	0x0080:  5858 5858 5858 5858 5858 5858 5858 5858
	0x0090:  5858 5858 5858 5858 5858 5858 5858 5858
07:48:21.280727 IP 164.100.61.151.1566 > 52.94.228.167.http: Flags [S], seq 103935281:103935401, win 512, length 120: HTTP
	0x0000:  4500 00a0 2476 0000 4006 5ae1 a464 3d97
	0x0010:  345e e4a7 061e 0050 0631 ed31 387b 91a7
	0x0020:  5002 0200 39c1 0000 5858 5858 5858 5858
	0x0030:  5858 5858 5858 5858 5858 5858 5858 5858
	0x0040:  5858 5858 5858 5858 5858 5858 5858 5858
	0x0050:  5858 5858 5858 5858 5858 5858 5858 5858
	0x0060:  5858 5858 5858 5858 5858 5858 5858 5858
	0x0070:  5858 5858 5858 5858 5858 5858 5858 5858
	0x0080:  5858 5858 5858 5858 5858 5858 5858 5858
	0x0090:  5858 5858 5858 5858 5858 5858 5858 5858
07:48:21.280744 IP 164.100.61.151.1567 > 52.94.228.167.http: Flags [S], seq 1440384373:1440384493, win 512, length 120: HTTP
	0x0000:  4500 00a0 0e9f 0000 4006 70b8 a464 3d97
	0x0010:  345e e4a7 061f 0050 55da 8575 66c4 b660
	0x0020:  5002 0200 fed0 0000 5858 5858 5858 5858
	0x0030:  5858 5858 5858 5858 5858 5858 5858 5858
	0x0040:  5858 5858 5858 5858 5858 5858 5858 5858
	0x0050:  5858 5858 5858 5858 5858 5858 5858 5858
	0x0060:  5858 5858 5858 5858 5858 5858 5858 5858
	0x0070:  5858 5858 5858 5858 5858 5858 5858 5858
	0x0080:  5858 5858 5858 5858 5858 5858 5858 5858
	0x0090:  5858 5858 5858 5858 5858 5858 5858 5858
07:48:21.280761 IP 164.100.61.151.1568 > 52.94.228.167.http: Flags [S], seq 1125013285:1125013405, win 512, length 120: HTTP
	0x0000:  4500 00a0 193f 0000 4006 6618 a464 3d97
	0x0010:  345e e4a7 0620 0050 430e 5725 267a 94b3
	0x0020:  5002 0200 a1e3 0000 5858 5858 5858 5858
	0x0030:  5858 5858 5858 5858 5858 5858 5858 5858
	0x0040:  5858 5858 5858 5858 5858 5858 5858 5858
	0x0050:  5858 5858 5858 5858 5858 5858 5858 5858
	0x0060:  5858 5858 5858 5858 5858 5858 5858 5858
	0x0070:  5858 5858 5858 5858 5858 5858 5858 5858
	0x0080:  5858 5858 5858 5858 5858 5858 5858 5858
	0x0090:  5858 5858 5858 5858 5858 5858 5858 5858
07:48:21.280777 IP 164.100.61.151.1569 > 52.94.228.167.http: Flags [S], seq 1325282013:1325282133, win 512, length 120: HTTP
	0x0000:  4500 00a0 c50a 0000 4006 ba4c a464 3d97
	0x0010:  345e e4a7 0621 0050 4efe 32dd 7831 70a5
	0x0020:  5002 0200 8c91 0000 5858 5858 5858 5858
	0x0030:  5858 5858 5858 5858 5858 5858 5858 5858
	0x0040:  5858 5858 5858 5858 5858 5858 5858 5858
	0x0050:  5858 5858 5858 5858 5858 5858 5858 5858
	0x0060:  5858 5858 5858 5858 5858 5858 5858 5858
	0x0070:  5858 5858 5858 5858 5858 5858 5858 5858
	0x0080:  5858 5858 5858 5858 5858 5858 5858 5858
	0x0090:  5858 5858 5858 5858 5858 5858 5858 5858
07:48:21.280793 IP 164.100.61.151.1570 > 52.94.228.167.http: Flags [S], seq 641306065:641306185, win 512, length 120: HTTP
	0x0000:  4500 00a0 7ca7 0000 4006 02b0 a464 3d97
	0x0010:  345e e4a7 0622 0050 2639 8dd1 4174 4d31
	0x0020:  5002 0200 b492 0000 5858 5858 5858 5858
	0x0030:  5858 5858 5858 5858 5858 5858 5858 5858
	0x0040:  5858 5858 5858 5858 5858 5858 5858 5858
	0x0050:  5858 5858 5858 5858 5858 5858 5858 5858
	0x0060:  5858 5858 5858 5858 5858 5858 5858 5858
	0x0070:  5858 5858 5858 5858 5858 5858 5858 5858
	0x0080:  5858 5858 5858 5858 5858 5858 5858 5858
	0x0090:  5858 5858 5858 5858 5858 5858 5858 5858
07:48:21.280810 IP 164.100.61.151.1571 > 52.94.228.167.http: Flags [S], seq 904511639:904511759, win 512, length 120: HTTP
	0x0000:  4500 00a0 241c 0000 4006 5b3b a464 3d97
	0x0010:  345e e4a7 0623 0050 35e9 c097 26df e83c
	0x0020:  5002 0200 f1a4 0000 5858 5858 5858 5858
	0x0030:  5858 5858 5858 5858 5858 5858 5858 5858
	0x0040:  5858 5858 5858 5858 5858 5858 5858 5858
	0x0050:  5858 5858 5858 5858 5858 5858 5858 5858
	0x0060:  5858 5858 5858 5858 5858 5858 5858 5858
	0x0070:  5858 5858 5858 5858 5858 5858 5858 5858
	0x0080:  5858 5858 5858 5858 5858 5858 5858 5858
	0x0090:  5858 5858 5858 5858 5858 5858 5858 5858
07:48:21.280833 IP 164.100.61.151.1572 > 52.94.228.167.http: Flags [S], seq 412348735:412348855, win 512, length 120: HTTP
	0x0000:  4500 00a0 ff9e 0000 4006 7fb8 a464 3d97
	0x0010:  345e e4a7 0624 0050 1893 f13f 6974 575f
	0x0020:  5002 0200 2c9a 0000 5858 5858 5858 5858
	0x0030:  5858 5858 5858 5858 5858 5858 5858 5858
	0x0040:  5858 5858 5858 5858 5858 5858 5858 5858
	0x0050:  5858 5858 5858 5858 5858 5858 5858 5858
	0x0060:  5858 5858 5858 5858 5858 5858 5858 5858
	0x0070:  5858 5858 5858 5858 5858 5858 5858 5858
	0x0080:  5858 5858 5858 5858 5858 5858 5858 5858
	0x0090:  5858 5858 5858 5858 5858 5858 5858 5858
07:48:21.280865 IP 164.100.61.151.1573 > 52.94.228.167.http: Flags [S], seq 1243747432:1243747552, win 512, length 120: HTTP
	0x0000:  4500 00a0 4a98 0000 4006 34bf a464 3d97
	0x0010:  345e e4a7 0625 0050 4a22 1468 2e47 92b9
	0x0020:  5002 0200 d7b4 0000 5858 5858 5858 5858
	0x0030:  5858 5858 5858 5858 5858 5858 5858 5858
	0x0040:  5858 5858 5858 5858 5858 5858 5858 5858
	0x0050:  5858 5858 5858 5858 5858 5858 5858 5858
	0x0060:  5858 5858 5858 5858 5858 5858 5858 5858
	0x0070:  5858 5858 5858 5858 5858 5858 5858 5858
	0x0080:  5858 5858 5858 5858 5858 5858 5858 5858
	0x0090:  5858 5858 5858 5858 5858 5858 5858 5858
07:48:21.280886 IP 164.100.61.151.1574 > 52.94.228.167.http: Flags [S], seq 2019680610:2019680730, win 512, length 120: HTTP
	0x0000:  4500 00a0 e1a0 0000 4006 9db6 a464 3d97
	0x0010:  345e e4a7 0626 0050 7861 e162 3777 9b15
	0x0020:  5002 0200 caed 0000 5858 5858 5858 5858
	0x0030:  5858 5858 5858 5858 5858 5858 5858 5858
	0x0040:  5858 5858 5858 5858 5858 5858 5858 5858
	0x0050:  5858 5858 5858 5858 5858 5858 5858 5858
	0x0060:  5858 5858 5858 5858 5858 5858 5858 5858
	0x0070:  5858 5858 5858 5858 5858 5858 5858 5858
	0x0080:  5858 5858 5858 5858 5858 5858 5858 5858
	0x0090:  5858 5858 5858 5858 5858 5858 5858 5858
07:48:21.280905 IP 164.100.61.151.1575 > 52.94.228.167.http: Flags [S], seq 1601336629:1601336749, win 512, length 120: HTTP
	0x0000:  4500 00a0 f694 0000 4006 88c2 a464 3d97
	0x0010:  345e e4a7 0627 0050 5f72 7535 73da ac1a
	0x0020:  5002 0200 02a1 0000 5858 5858 5858 5858
	0x0030:  5858 5858 5858 5858 5858 5858 5858 5858
	0x0040:  5858 5858 5858 5858 5858 5858 5858 5858
	0x0050:  5858 5858 5858 5858 5858 5858 5858 5858
	0x0060:  5858 5858 5858 5858 5858 5858 5858 5858
	0x0070:  5858 5858 5858 5858 5858 5858 5858 5858
	0x0080:  5858 5858 5858 5858 5858 5858 5858 5858
	0x0090:  5858 5858 5858 5858 5858 5858 5858 5858
07:48:21.280924 IP 164.100.61.151.1576 > 52.94.228.167.http: Flags [S], seq 339769011:339769131, win 512, length 120: HTTP
	0x0000:  4500 00a0 883b 0000 4006 f71b a464 3d97
	0x0010:  345e e4a7 0628 0050 1440 76b3 7a0c 994c
	0x0020:  5002 0200 58f0 0000 5858 5858 5858 5858
	0x0030:  5858 5858 5858 5858 5858 5858 5858 5858
	0x0040:  5858 5858 5858 5858 5858 5858 5858 5858
	0x0050:  5858 5858 5858 5858 5858 5858 5858 5858
	0x0060:  5858 5858 5858 5858 5858 5858 5858 5858
	0x0070:  5858 5858 5858 5858 5858 5858 5858 5858
	0x0080:  5858 5858 5858 5858 5858 5858 5858 5858
	0x0090:  5858 5858 5858 5858 5858 5858 5858 5858
07:48:21.280944 IP 164.100.61.151.1577 > 52.94.228.167.http: Flags [S], seq 388471593:388471713, win 512, length 120: HTTP
	0x0000:  4500 00a0 3e9c 0000 4006 40bb a464 3d97
	0x0010:  345e e4a7 0629 0050 1727 9b29 4fe7 1ec1
	0x0020:  5002 0200 d642 0000 5858 5858 5858 5858
	0x0030:  5858 5858 5858 5858 5858 5858 5858 5858
	0x0040:  5858 5858 5858 5858 5858 5858 5858 5858
	0x0050:  5858 5858 5858 5858 5858 5858 5858 5858
	0x0060:  5858 5858 5858 5858 5858 5858 5858 5858
	0x0070:  5858 5858 5858 5858 5858 5858 5858 5858
	0x0080:  5858 5858 5858 5858 5858 5858 5858 5858
	0x0090:  5858 5858 5858 5858 5858 5858 5858 5858
07:48:21.280963 IP 164.100.61.151.1578 > 52.94.228.167.http: Flags [S], seq 1020176841:1020176961, win 512, length 120: HTTP
	0x0000:  4500 00a0 d34f 0000 4006 ac07 a464 3d97
	0x0010:  345e e4a7 062a 0050 3cce a9c9 12f5 75e7
	0x0020:  5002 0200 87c6 0000 5858 5858 5858 5858
	0x0030:  5858 5858 5858 5858 5858 5858 5858 5858
	0x0040:  5858 5858 5858 5858 5858 5858 5858 5858
	0x0050:  5858 5858 5858 5858 5858 5858 5858 5858
	0x0060:  5858 5858 5858 5858 5858 5858 5858 5858
	0x0070:  5858 5858 5858 5858 5858 5858 5858 5858
	0x0080:  5858 5858 5858 5858 5858 5858 5858 5858
	0x0090:  5858 5858 5858 5858 5858 5858 5858 5858
07:48:21.280983 IP 164.100.61.151.1579 > 52.94.228.167.http: Flags [S], seq 1331348232:1331348352, win 512, length 120: HTTP
	0x0000:  4500 00a0 43f4 0000 4006 3b63 a464 3d97
	0x0010:  345e e4a7 062b 0050 4f5a c308 61f3 a8c4
	0x0020:  5002 0200 da1e 0000 5858 5858 5858 5858
	0x0030:  5858 5858 5858 5858 5858 5858 5858 5858
	0x0040:  5858 5858 5858 5858 5858 5858 5858 5858
	0x0050:  5858 5858 5858 5858 5858 5858 5858 5858
	0x0060:  5858 5858 5858 5858 5858 5858 5858 5858
	0x0070:  5858 5858 5858 5858 5858 5858 5858 5858
	0x0080:  5858 5858 5858 5858 5858 5858 5858 5858
	0x0090:  5858 5858 5858 5858 5858 5858 5858 5858
07:48:21.281002 IP 164.100.61.151.1580 > 52.94.228.167.http: Flags [S], seq 867141651:867141771, win 512, length 120: HTTP
	0x0000:  4500 00a0 9126 0000 4006 ee30 a464 3d97
	0x0010:  345e e4a7 062c 0050 33af 8813 082d 3696
	0x0020:  5002 0200 fcb2 0000 5858 5858 5858 5858
	0x0030:  5858 5858 5858 5858 5858 5858 5858 5858
	0x0040:  5858 5858 5858 5858 5858 5858 5858 5858
	0x0050:  5858 5858 5858 5858 5858 5858 5858 5858
	0x0060:  5858 5858 5858 5858 5858 5858 5858 5858
	0x0070:  5858 5858 5858 5858 5858 5858 5858 5858
	0x0080:  5858 5858 5858 5858 5858 5858 5858 5858
	0x0090:  5858 5858 5858 5858 5858 5858 5858 5858
07:48:21.281019 IP 164.100.61.151.1581 > 52.94.228.167.http: Flags [S], seq 1931281594:1931281714, win 512, length 120: HTTP
	0x0000:  4500 00a0 7962 0000 4006 05f5 a464 3d97
	0x0010:  345e e4a7 062d 0050 731d 04ba 3e16 f72d
	0x0020:  5002 0200 4a1c 0000 5858 5858 5858 5858
	0x0030:  5858 5858 5858 5858 5858 5858 5858 5858
	0x0040:  5858 5858 5858 5858 5858 5858 5858 5858
	0x0050:  5858 5858 5858 5858 5858 5858 5858 5858
	0x0060:  5858 5858 5858 5858 5858 5858 5858 5858
	0x0070:  5858 5858 5858 5858 5858 5858 5858 5858
	0x0080:  5858 5858 5858 5858 5858 5858 5858 5858
	0x0090:  5858 5858 5858 5858 5858 5858 5858 5858
07:48:21.281035 IP 164.100.61.151.1582 > 52.94.228.167.http: Flags [S], seq 278145238:278145358, win 512, length 120: HTTP
	0x0000:  4500 00a0 d0c1 0000 4006 ae95 a464 3d97
	0x0010:  345e e4a7 062e 0050 1094 28d6 56aa e86c
	0x0020:  5002 0200 7eb5 0000 5858 5858 5858 5858
	0x0030:  5858 5858 5858 5858 5858 5858 5858 5858
	0x0040:  5858 5858 5858 5858 5858 5858 5858 5858
	0x0050:  5858 5858 5858 5858 5858 5858 5858 5858
	0x0060:  5858 5858 5858 5858 5858 5858 5858 5858
	0x0070:  5858 5858 5858 5858 5858 5858 5858 5858
	0x0080:  5858 5858 5858 5858 5858 5858 5858 5858
	0x0090:  5858 5858 5858 5858 5858 5858 5858 5858
07:48:21.281052 IP 164.100.61.151.1583 > 52.94.228.167.http: Flags [S], seq 1170548853:1170548973, win 512, length 120: HTTP
	0x0000:  4500 00a0 637a 0000 4006 1bdd a464 3d97
	0x0010:  345e e4a7 062f 0050 45c5 2875 20cc fcd4
	0x0020:  5002 0200 6b5a 0000 5858 5858 5858 5858
	0x0030:  5858 5858 5858 5858 5858 5858 5858 5858
	0x0040:  5858 5858 5858 5858 5858 5858 5858 5858
	0x0050:  5858 5858 5858 5858 5858 5858 5858 5858
	0x0060:  5858 5858 5858 5858 5858 5858 5858 5858
	0x0070:  5858 5858 5858 5858 5858 5858 5858 5858
	0x0080:  5858 5858 5858 5858 5858 5858 5858 5858
	0x0090:  5858 5858 5858 5858 5858 5858 5858 5858
07:48:21.281070 IP 164.100.61.151.1584 > 52.94.228.167.http: Flags [S], seq 913994509:913994629, win 512, length 120: HTTP
	0x0000:  4500 00a0 fe8f 0000 4006 80c7 a464 3d97
	0x0010:  345e e4a7 0630 0050 367a 730d 192e de36
	0x0020:  5002 0200 5648 0000 5858 5858 5858 5858
	0x0030:  5858 5858 5858 5858 5858 5858 5858 5858
	0x0040:  5858 5858 5858 5858 5858 5858 5858 5858
	0x0050:  5858 5858 5858 5858 5858 5858 5858 5858
	0x0060:  5858 5858 5858 5858 5858 5858 5858 5858
	0x0070:  5858 5858 5858 5858 5858 5858 5858 5858
	0x0080:  5858 5858 5858 5858 5858 5858 5858 5858
	0x0090:  5858 5858 5858 5858 5858 5858 5858 5858
07:48:21.281098 IP 164.100.61.151.1585 > 52.94.228.167.http: Flags [S], seq 1088836781:1088836901, win 512, length 120: HTTP
	0x0000:  4500 00a0 aaaa 0000 4006 d4ac a464 3d97
	0x0010:  345e e4a7 0631 0050 40e6 54ad 78a1 536c
	0x0020:  5002 0200 9592 0000 5858 5858 5858 5858
	0x0030:  5858 5858 5858 5858 5858 5858 5858 5858
	0x0040:  5858 5858 5858 5858 5858 5858 5858 5858
	0x0050:  5858 5858 5858 5858 5858 5858 5858 5858
	0x0060:  5858 5858 5858 5858 5858 5858 5858 5858
	0x0070:  5858 5858 5858 5858 5858 5858 5858 5858
	0x0080:  5858 5858 5858 5858 5858 5858 5858 5858
	0x0090:  5858 5858 5858 5858 5858 5858 5858 5858
07:48:21.281119 IP 164.100.61.151.1586 > 52.94.228.167.http: Flags [S], seq 1743932226:1743932346, win 512, length 120: HTTP
	0x0000:  4500 00a0 43f6 0000 4006 3b61 a464 3d97
	0x0010:  345e e4a7 0632 0050 67f2 4b42 0ce1 ca1f
	0x0020:  5002 0200 6cfd 0000 5858 5858 5858 5858
	0x0030:  5858 5858 5858 5858 5858 5858 5858 5858
	0x0040:  5858 5858 5858 5858 5858 5858 5858 5858
	0x0050:  5858 5858 5858 5858 5858 5858 5858 5858
	0x0060:  5858 5858 5858 5858 5858 5858 5858 5858
	0x0070:  5858 5858 5858 5858 5858 5858 5858 5858
	0x0080:  5858 5858 5858 5858 5858 5858 5858 5858
	0x0090:  5858 5858 5858 5858 5858 5858 5858 5858
07:48:21.281136 IP 164.100.61.151.1587 > 52.94.228.167.http: Flags [S], seq 1199166333:1199166453, win 512, length 120: HTTP
	0x0000:  4500 00a0 62b7 0000 4006 1ca0 a464 3d97
	0x0010:  345e e4a7 0633 0050 4779 d37d 2409 6548
	0x0020:  5002 0200 52e9 0000 5858 5858 5858 5858
	0x0030:  5858 5858 5858 5858 5858 5858 5858 5858
	0x0040:  5858 5858 5858 5858 5858 5858 5858 5858
	0x0050:  5858 5858 5858 5858 5858 5858 5858 5858
	0x0060:  5858 5858 5858 5858 5858 5858 5858 5858
	0x0070:  5858 5858 5858 5858 5858 5858 5858 5858
	0x0080:  5858 5858 5858 5858 5858 5858 5858 5858
	0x0090:  5858 5858 5858 5858 5858 5858 5858 5858
07:48:21.281152 IP 164.100.61.151.1588 > 52.94.228.167.http: Flags [S], seq 231084569:231084689, win 512, length 120: HTTP
	0x0000:  4500 00a0 d89e 0000 4006 a6b8 a464 3d97
	0x0010:  345e e4a7 0634 0050 0dc6 1219 60d8 0f11
	0x0020:  5002 0200 6768 0000 5858 5858 5858 5858
	0x0030:  5858 5858 5858 5858 5858 5858 5858 5858
	0x0040:  5858 5858 5858 5858 5858 5858 5858 5858
	0x0050:  5858 5858 5858 5858 5858 5858 5858 5858
	0x0060:  5858 5858 5858 5858 5858 5858 5858 5858
	0x0070:  5858 5858 5858 5858 5858 5858 5858 5858
	0x0080:  5858 5858 5858 5858 5858 5858 5858 5858
	0x0090:  5858 5858 5858 5858 5858 5858 5858 5858
07:48:21.281168 IP 164.100.61.151.1589 > 52.94.228.167.http: Flags [S], seq 2056054121:2056054241, win 512, length 120: HTTP
	0x0000:  4500 00a0 8163 0000 4006 fdf3 a464 3d97
	0x0010:  345e e4a7 0635 0050 7a8c e569 3032 d21a
	0x0020:  5002 0200 94ec 0000 5858 5858 5858 5858
	0x0030:  5858 5858 5858 5858 5858 5858 5858 5858
	0x0040:  5858 5858 5858 5858 5858 5858 5858 5858
	0x0050:  5858 5858 5858 5858 5858 5858 5858 5858
	0x0060:  5858 5858 5858 5858 5858 5858 5858 5858
	0x0070:  5858 5858 5858 5858 5858 5858 5858 5858
	0x0080:  5858 5858 5858 5858 5858 5858 5858 5858
	0x0090:  5858 5858 5858 5858 5858 5858 5858 5858
07:48:21.281185 IP 164.100.61.151.1590 > 52.94.228.167.http: Flags [S], seq 1602562397:1602562517, win 512, length 120: HTTP
	0x0000:  4500 00a0 b7f9 0000 4006 c75d a464 3d97
	0x0010:  345e e4a7 0636 0050 5f85 295d 63e2 5a2d
	0x0020:  5002 0200 b03c 0000 5858 5858 5858 5858
	0x0030:  5858 5858 5858 5858 5858 5858 5858 5858
	0x0040:  5858 5858 5858 5858 5858 5858 5858 5858
	0x0050:  5858 5858 5858 5858 5858 5858 5858 5858
	0x0060:  5858 5858 5858 5858 5858 5858 5858 5858
	0x0070:  5858 5858 5858 5858 5858 5858 5858 5858
	0x0080:  5858 5858 5858 5858 5858 5858 5858 5858
	0x0090:  5858 5858 5858 5858 5858 5858 5858 5858
07:48:21.281201 IP 164.100.61.151.1591 > 52.94.228.167.http: Flags [S], seq 99728003:99728123, win 512, length 120: HTTP
	0x0000:  4500 00a0 af26 0000 4006 d030 a464 3d97
	0x0010:  345e e4a7 0637 0050 05f1 ba83 56ff 5ee7
	0x0020:  5002 0200 80d2 0000 5858 5858 5858 5858
	0x0030:  5858 5858 5858 5858 5858 5858 5858 5858
	0x0040:  5858 5858 5858 5858 5858 5858 5858 5858
	0x0050:  5858 5858 5858 5858 5858 5858 5858 5858
	0x0060:  5858 5858 5858 5858 5858 5858 5858 5858
	0x0070:  5858 5858 5858 5858 5858 5858 5858 5858
	0x0080:  5858 5858 5858 5858 5858 5858 5858 5858
	0x0090:  5858 5858 5858 5858 5858 5858 5858 5858
07:48:21.281222 IP 164.100.61.151.1592 > 52.94.228.167.http: Flags [S], seq 1396585445:1396585565, win 512, length 120: HTTP
	0x0000:  4500 00a0 9793 0000 4006 e7c3 a464 3d97
	0x0010:  345e e4a7 0638 0050 533e 33e5 6793 87be
	0x0020:  5002 0200 80b7 0000 5858 5858 5858 5858
	0x0030:  5858 5858 5858 5858 5858 5858 5858 5858
	0x0040:  5858 5858 5858 5858 5858 5858 5858 5858
	0x0050:  5858 5858 5858 5858 5858 5858 5858 5858
	0x0060:  5858 5858 5858 5858 5858 5858 5858 5858
	0x0070:  5858 5858 5858 5858 5858 5858 5858 5858
	0x0080:  5858 5858 5858 5858 5858 5858 5858 5858
	0x0090:  5858 5858 5858 5858 5858 5858 5858 5858
07:48:21.281248 IP 164.100.61.151.1593 > 52.94.228.167.http: Flags [S], seq 167707814:167707934, win 512, length 120: HTTP
	0x0000:  4500 00a0 9467 0000 4006 eaef a464 3d97
	0x0010:  345e e4a7 0639 0050 09ff 04a6 2d58 b033
	0x0020:  5002 0200 0afb 0000 5858 5858 5858 5858
	0x0030:  5858 5858 5858 5858 5858 5858 5858 5858
	0x0040:  5858 5858 5858 5858 5858 5858 5858 5858
	0x0050:  5858 5858 5858 5858 5858 5858 5858 5858
	0x0060:  5858 5858 5858 5858 5858 5858 5858 5858
	0x0070:  5858 5858 5858 5858 5858 5858 5858 5858
	0x0080:  5858 5858 5858 5858 5858 5858 5858 5858
	0x0090:  5858 5858 5858 5858 5858 5858 5858 5858
07:48:21.281265 IP 164.100.61.151.1594 > 52.94.228.167.http: Flags [S], seq 1862756384:1862756504, win 512, length 120: HTTP
	0x0000:  4500 00a0 729e 0000 4006 0cb9 a464 3d97
	0x0010:  345e e4a7 063a 0050 6f07 6820 63d3 2340
	0x0020:  5002 0200 98ef 0000 5858 5858 5858 5858
	0x0030:  5858 5858 5858 5858 5858 5858 5858 5858
	0x0040:  5858 5858 5858 5858 5858 5858 5858 5858
	0x0050:  5858 5858 5858 5858 5858 5858 5858 5858
	0x0060:  5858 5858 5858 5858 5858 5858 5858 5858
	0x0070:  5858 5858 5858 5858 5858 5858 5858 5858
	0x0080:  5858 5858 5858 5858 5858 5858 5858 5858
	0x0090:  5858 5858 5858 5858 5858 5858 5858 5858
07:48:21.281281 IP 164.100.61.151.1595 > 52.94.228.167.http: Flags [S], seq 193423024:193423144, win 512, length 120: HTTP
	0x0000:  4500 00a0 c60a 0000 4006 b94c a464 3d97
	0x0010:  345e e4a7 063b 0050 0b87 66b0 24b9 77ed
	0x0020:  5002 0200 e84b 0000 5858 5858 5858 5858
	0x0030:  5858 5858 5858 5858 5858 5858 5858 5858
	0x0040:  5858 5858 5858 5858 5858 5858 5858 5858
	0x0050:  5858 5858 5858 5858 5858 5858 5858 5858
	0x0060:  5858 5858 5858 5858 5858 5858 5858 5858
	0x0070:  5858 5858 5858 5858 5858 5858 5858 5858
	0x0080:  5858 5858 5858 5858 5858 5858 5858 5858
	0x0090:  5858 5858 5858 5858 5858 5858 5858 5858
07:48:21.281297 IP 164.100.61.151.1596 > 52.94.228.167.http: Flags [S], seq 467800410:467800530, win 512, length 120: HTTP
	0x0000:  4500 00a0 9029 0000 4006 ef2d a464 3d97
	0x0010:  345e e4a7 063c 0050 1be2 115a 0cab c32f
	0x0020:  5002 0200 fa11 0000 5858 5858 5858 5858
	0x0030:  5858 5858 5858 5858 5858 5858 5858 5858
	0x0040:  5858 5858 5858 5858 5858 5858 5858 5858
	0x0050:  5858 5858 5858 5858 5858 5858 5858 5858
	0x0060:  5858 5858 5858 5858 5858 5858 5858 5858
	0x0070:  5858 5858 5858 5858 5858 5858 5858 5858
	0x0080:  5858 5858 5858 5858 5858 5858 5858 5858
	0x0090:  5858 5858 5858 5858 5858 5858 5858 5858
07:48:21.281314 IP 164.100.61.151.1597 > 52.94.228.167.http: Flags [S], seq 642340176:642340296, win 512, length 120: HTTP
	0x0000:  4500 00a0 f571 0000 4006 89e5 a464 3d97
	0x0010:  345e e4a7 063d 0050 2649 5550 5425 96ad
	0x0020:  5002 0200 90bb 0000 5858 5858 5858 5858
	0x0030:  5858 5858 5858 5858 5858 5858 5858 5858
	0x0040:  5858 5858 5858 5858 5858 5858 5858 5858
	0x0050:  5858 5858 5858 5858 5858 5858 5858 5858
	0x0060:  5858 5858 5858 5858 5858 5858 5858 5858
	0x0070:  5858 5858 5858 5858 5858 5858 5858 5858
	0x0080:  5858 5858 5858 5858 5858 5858 5858 5858
	0x0090:  5858 5858 5858 5858 5858 5858 5858 5858
07:48:21.281330 IP 164.100.61.151.1598 > 52.94.228.167.http: Flags [S], seq 9943047:9943167, win 512, length 120: HTTP
	0x0000:  4500 00a0 0483 0000 4006 7ad4 a464 3d97
	0x0010:  345e e4a7 063e 0050 0097 b807 61eb a8c6
	0x0020:  5002 0200 33d6 0000 5858 5858 5858 5858
	0x0030:  5858 5858 5858 5858 5858 5858 5858 5858
	0x0040:  5858 5858 5858 5858 5858 5858 5858 5858
	0x0050:  5858 5858 5858 5858 5858 5858 5858 5858
	0x0060:  5858 5858 5858 5858 5858 5858 5858 5858
	0x0070:  5858 5858 5858 5858 5858 5858 5858 5858
	0x0080:  5858 5858 5858 5858 5858 5858 5858 5858
	0x0090:  5858 5858 5858 5858 5858 5858 5858 5858
07:48:21.281347 IP 164.100.61.151.1599 > 52.94.228.167.http: Flags [S], seq 1843105958:1843106078, win 512, length 120: HTTP
	0x0000:  4500 00a0 d69d 0000 4006 a8b9 a464 3d97
	0x0010:  345e e4a7 063f 0050 6ddb 90a6 5c78 8e2f
	0x0020:  5002 0200 0dfc 0000 5858 5858 5858 5858
	0x0030:  5858 5858 5858 5858 5858 5858 5858 5858
	0x0040:  5858 5858 5858 5858 5858 5858 5858 5858
	0x0050:  5858 5858 5858 5858 5858 5858 5858 5858
	0x0060:  5858 5858 5858 5858 5858 5858 5858 5858
	0x0070:  5858 5858 5858 5858 5858 5858 5858 5858
	0x0080:  5858 5858 5858 5858 5858 5858 5858 5858
	0x0090:  5858 5858 5858 5858 5858 5858 5858 5858
07:48:21.281363 IP 164.100.61.151.1600 > 52.94.228.167.http: Flags [S], seq 1024659977:1024660097, win 512, length 120: HTTP
	0x0000:  4500 00a0 30ca 0000 4006 4e8d a464 3d97
	0x0010:  345e e4a7 0640 0050 3d13 1209 3bfd b78d
	0x0020:  5002 0200 b47d 0000 5858 5858 5858 5858
	0x0030:  5858 5858 5858 5858 5858 5858 5858 5858
	0x0040:  5858 5858 5858 5858 5858 5858 5858 5858
	0x0050:  5858 5858 5858 5858 5858 5858 5858 5858
	0x0060:  5858 5858 5858 5858 5858 5858 5858 5858
	0x0070:  5858 5858 5858 5858 5858 5858 5858 5858
	0x0080:  5858 5858 5858 5858 5858 5858 5858 5858
	0x0090:  5858 5858 5858 5858 5858 5858 5858 5858
07:48:21.281380 IP 164.100.61.151.1601 > 52.94.228.167.http: Flags [S], seq 343394818:343394938, win 512, length 120: HTTP
	0x0000:  4500 00a0 8fb1 0000 4006 efa5 a464 3d97
	0x0010:  345e e4a7 0641 0050 1477 ca02 41ef 7210
	0x0020:  5002 0200 64aa 0000 5858 5858 5858 5858
	0x0030:  5858 5858 5858 5858 5858 5858 5858 5858
	0x0040:  5858 5858 5858 5858 5858 5858 5858 5858
	0x0050:  5858 5858 5858 5858 5858 5858 5858 5858
	0x0060:  5858 5858 5858 5858 5858 5858 5858 5858
	0x0070:  5858 5858 5858 5858 5858 5858 5858 5858
	0x0080:  5858 5858 5858 5858 5858 5858 5858 5858
	0x0090:  5858 5858 5858 5858 5858 5858 5858 5858
07:48:21.281397 IP 164.100.61.151.1602 > 52.94.228.167.http: Flags [S], seq 703822120:703822240, win 512, length 120: HTTP
	0x0000:  4500 00a0 176f 0000 4006 67e8 a464 3d97
	0x0010:  345e e4a7 0642 0050 29f3 7928 152d a5f6
	0x0020:  5002 0200 98e3 0000 5858 5858 5858 5858
	0x0030:  5858 5858 5858 5858 5858 5858 5858 5858
	0x0040:  5858 5858 5858 5858 5858 5858 5858 5858
	0x0050:  5858 5858 5858 5858 5858 5858 5858 5858
	0x0060:  5858 5858 5858 5858 5858 5858 5858 5858
	0x0070:  5858 5858 5858 5858 5858 5858 5858 5858
	0x0080:  5858 5858 5858 5858 5858 5858 5858 5858
	0x0090:  5858 5858 5858 5858 5858 5858 5858 5858
07:48:21.281413 IP 164.100.61.151.1603 > 52.94.228.167.http: Flags [S], seq 370806971:370807091, win 512, length 120: HTTP
	0x0000:  4500 00a0 c7a2 0000 4006 b7b4 a464 3d97
	0x0010:  345e e4a7 0643 0050 161a 10bb 1f2c aa9c
	0x0020:  5002 0200 0684 0000 5858 5858 5858 5858
	0x0030:  5858 5858 5858 5858 5858 5858 5858 5858
	0x0040:  5858 5858 5858 5858 5858 5858 5858 5858
	0x0050:  5858 5858 5858 5858 5858 5858 5858 5858
	0x0060:  5858 5858 5858 5858 5858 5858 5858 5858
	0x0070:  5858 5858 5858 5858 5858 5858 5858 5858
	0x0080:  5858 5858 5858 5858 5858 5858 5858 5858
	0x0090:  5858 5858 5858 5858 5858 5858 5858 5858
07:48:21.281430 IP 164.100.61.151.1604 > 52.94.228.167.http: Flags [S], seq 588096803:588096923, win 512, length 120: HTTP
	0x0000:  4500 00a0 eae2 0000 4006 9474 a464 3d97
	0x0010:  345e e4a7 0644 0050 230d a523 0e34 12bd
	0x0020:  5002 0200 0dff 0000 5858 5858 5858 5858
	0x0030:  5858 5858 5858 5858 5858 5858 5858 5858
	0x0040:  5858 5858 5858 5858 5858 5858 5858 5858
	0x0050:  5858 5858 5858 5858 5858 5858 5858 5858
	0x0060:  5858 5858 5858 5858 5858 5858 5858 5858
	0x0070:  5858 5858 5858 5858 5858 5858 5858 5858
	0x0080:  5858 5858 5858 5858 5858 5858 5858 5858
	0x0090:  5858 5858 5858 5858 5858 5858 5858 5858
07:48:21.281446 IP 164.100.61.151.1605 > 52.94.228.167.http: Flags [S], seq 1227888577:1227888697, win 512, length 120: HTTP
	0x0000:  4500 00a0 62d0 0000 4006 1c87 a464 3d97
	0x0010:  345e e4a7 0645 0050 4930 17c1 19bb 796d
	0x0020:  5002 0200 0306 0000 5858 5858 5858 5858
	0x0030:  5858 5858 5858 5858 5858 5858 5858 5858
	0x0040:  5858 5858 5858 5858 5858 5858 5858 5858
	0x0050:  5858 5858 5858 5858 5858 5858 5858 5858
	0x0060:  5858 5858 5858 5858 5858 5858 5858 5858
	0x0070:  5858 5858 5858 5858 5858 5858 5858 5858
	0x0080:  5858 5858 5858 5858 5858 5858 5858 5858
	0x0090:  5858 5858 5858 5858 5858 5858 5858 5858
07:48:21.281463 IP 164.100.61.151.1606 > 52.94.228.167.http: Flags [S], seq 1744035275:1744035395, win 512, length 120: HTTP
	0x0000:  4500 00a0 25ff 0000 4006 5958 a464 3d97
	0x0010:  345e e4a7 0646 0050 67f3 ddcb 359d 8ac7
	0x0020:  5002 0200 f0fa 0000 5858 5858 5858 5858
	0x0030:  5858 5858 5858 5858 5858 5858 5858 5858
	0x0040:  5858 5858 5858 5858 5858 5858 5858 5858
	0x0050:  5858 5858 5858 5858 5858 5858 5858 5858
	0x0060:  5858 5858 5858 5858 5858 5858 5858 5858
	0x0070:  5858 5858 5858 5858 5858 5858 5858 5858
	0x0080:  5858 5858 5858 5858 5858 5858 5858 5858
	0x0090:  5858 5858 5858 5858 5858 5858 5858 5858
07:48:21.281479 IP 164.100.61.151.1607 > 52.94.228.167.http: Flags [S], seq 328822260:328822380, win 512, length 120: HTTP
	0x0000:  4500 00a0 bcac 0000 4006 c2aa a464 3d97
	0x0010:  345e e4a7 0647 0050 1399 6df4 5be6 e017
	0x0020:  5002 0200 3992 0000 5858 5858 5858 5858
	0x0030:  5858 5858 5858 5858 5858 5858 5858 5858
	0x0040:  5858 5858 5858 5858 5858 5858 5858 5858
	0x0050:  5858 5858 5858 5858 5858 5858 5858 5858
	0x0060:  5858 5858 5858 5858 5858 5858 5858 5858
	0x0070:  5858 5858 5858 5858 5858 5858 5858 5858
	0x0080:  5858 5858 5858 5858 5858 5858 5858 5858
	0x0090:  5858 5858 5858 5858 5858 5858 5858 5858
07:48:21.281495 IP 164.100.61.151.1608 > 52.94.228.167.http: Flags [S], seq 1665688421:1665688541, win 512, length 120: HTTP
	0x0000:  4500 00a0 6573 0000 4006 19e4 a464 3d97
	0x0010:  345e e4a7 0648 0050 6348 6365 5c7e 981e
	0x0020:  5002 0200 3bd2 0000 5858 5858 5858 5858
	0x0030:  5858 5858 5858 5858 5858 5858 5858 5858
	0x0040:  5858 5858 5858 5858 5858 5858 5858 5858
	0x0050:  5858 5858 5858 5858 5858 5858 5858 5858
	0x0060:  5858 5858 5858 5858 5858 5858 5858 5858
	0x0070:  5858 5858 5858 5858 5858 5858 5858 5858
	0x0080:  5858 5858 5858 5858 5858 5858 5858 5858
	0x0090:  5858 5858 5858 5858 5858 5858 5858 5858
07:48:21.281512 IP 164.100.61.151.1609 > 52.94.228.167.http: Flags [S], seq 332359656:332359776, win 512, length 120: HTTP
	0x0000:  4500 00a0 f3a2 0000 4006 8bb4 a464 3d97
	0x0010:  345e e4a7 0649 0050 13cf 67e8 4a5a 28c4
	0x0020:  5002 0200 0846 0000 5858 5858 5858 5858
	0x0030:  5858 5858 5858 5858 5858 5858 5858 5858
	0x0040:  5858 5858 5858 5858 5858 5858 5858 5858
	0x0050:  5858 5858 5858 5858 5858 5858 5858 5858
	0x0060:  5858 5858 5858 5858 5858 5858 5858 5858
	0x0070:  5858 5858 5858 5858 5858 5858 5858 5858
	0x0080:  5858 5858 5858 5858 5858 5858 5858 5858
	0x0090:  5858 5858 5858 5858 5858 5858 5858 5858
07:48:21.281528 IP 164.100.61.151.1610 > 52.94.228.167.http: Flags [S], seq 1955151493:1955151613, win 512, length 120: HTTP
	0x0000:  4500 00a0 ab2f 0000 4006 d427 a464 3d97
	0x0010:  345e e4a7 064a 0050 7489 3e85 076d 3acd
	0x0020:  5002 0200 01d2 0000 5858 5858 5858 5858
	0x0030:  5858 5858 5858 5858 5858 5858 5858 5858
	0x0040:  5858 5858 5858 5858 5858 5858 5858 5858
	0x0050:  5858 5858 5858 5858 5858 5858 5858 5858
	0x0060:  5858 5858 5858 5858 5858 5858 5858 5858
	0x0070:  5858 5858 5858 5858 5858 5858 5858 5858
	0x0080:  5858 5858 5858 5858 5858 5858 5858 5858
	0x0090:  5858 5858 5858 5858 5858 5858 5858 5858
07:48:21.281544 IP 164.100.61.151.1611 > 52.94.228.167.http: Flags [S], seq 958754639:958754759, win 512, length 120: HTTP
	0x0000:  4500 00a0 1d40 0000 4006 6217 a464 3d97
	0x0010:  345e e4a7 064b 0050 3925 6f4f 1be5 04cf
	0x0020:  5002 0200 2df1 0000 5858 5858 5858 5858
	0x0030:  5858 5858 5858 5858 5858 5858 5858 5858
	0x0040:  5858 5858 5858 5858 5858 5858 5858 5858
	0x0050:  5858 5858 5858 5858 5858 5858 5858 5858
	0x0060:  5858 5858 5858 5858 5858 5858 5858 5858
	0x0070:  5858 5858 5858 5858 5858 5858 5858 5858
	0x0080:  5858 5858 5858 5858 5858 5858 5858 5858
	0x0090:  5858 5858 5858 5858 5858 5858 5858 5858
07:48:21.281561 IP 164.100.61.151.1612 > 52.94.228.167.http: Flags [S], seq 1421934337:1421934457, win 512, length 120: HTTP
	0x0000:  4500 00a0 c336 0000 4006 bc20 a464 3d97
	0x0010:  345e e4a7 064c 0050 54c0 ff01 45d8 7df8
	0x0020:  5002 0200 df85 0000 5858 5858 5858 5858
	0x0030:  5858 5858 5858 5858 5858 5858 5858 5858
	0x0040:  5858 5858 5858 5858 5858 5858 5858 5858
	0x0050:  5858 5858 5858 5858 5858 5858 5858 5858
	0x0060:  5858 5858 5858 5858 5858 5858 5858 5858
	0x0070:  5858 5858 5858 5858 5858 5858 5858 5858
	0x0080:  5858 5858 5858 5858 5858 5858 5858 5858
	0x0090:  5858 5858 5858 5858 5858 5858 5858 5858
07:48:21.281577 IP 164.100.61.151.1613 > 52.94.228.167.http: Flags [S], seq 1475352176:1475352296, win 512, length 120: HTTP
	0x0000:  4500 00a0 6dd2 0000 4006 1185 a464 3d97
	0x0010:  345e e4a7 064d 0050 57f0 1670 5bf2 8eb3
	0x0020:  5002 0200 9e11 0000 5858 5858 5858 5858
	0x0030:  5858 5858 5858 5858 5858 5858 5858 5858
	0x0040:  5858 5858 5858 5858 5858 5858 5858 5858
	0x0050:  5858 5858 5858 5858 5858 5858 5858 5858
	0x0060:  5858 5858 5858 5858 5858 5858 5858 5858
	0x0070:  5858 5858 5858 5858 5858 5858 5858 5858
	0x0080:  5858 5858 5858 5858 5858 5858 5858 5858
	0x0090:  5858 5858 5858 5858 5858 5858 5858 5858
07:48:21.281594 IP 164.100.61.151.1614 > 52.94.228.167.http: Flags [S], seq 142073363:142073483, win 512, length 120: HTTP
	0x0000:  4500 00a0 808f 0000 4006 fec7 a464 3d97
	0x0010:  345e e4a7 064e 0050 0877 de13 7f00 33d6
	0x0020:  5002 0200 5db5 0000 5858 5858 5858 5858
	0x0030:  5858 5858 5858 5858 5858 5858 5858 5858
	0x0040:  5858 5858 5858 5858 5858 5858 5858 5858
	0x0050:  5858 5858 5858 5858 5858 5858 5858 5858
	0x0060:  5858 5858 5858 5858 5858 5858 5858 5858
	0x0070:  5858 5858 5858 5858 5858 5858 5858 5858
	0x0080:  5858 5858 5858 5858 5858 5858 5858 5858
	0x0090:  5858 5858 5858 5858 5858 5858 5858 5858
07:48:21.281610 IP 164.100.61.151.1615 > 52.94.228.167.http: Flags [S], seq 483576053:483576173, win 512, length 120: HTTP
	0x0000:  4500 00a0 f9fc 0000 4006 855a a464 3d97
	0x0010:  345e e4a7 064f 0050 1cd2 c8f5 4830 4b97
	0x0020:  5002 0200 7d86 0000 5858 5858 5858 5858
	0x0030:  5858 5858 5858 5858 5858 5858 5858 5858
	0x0040:  5858 5858 5858 5858 5858 5858 5858 5858
	0x0050:  5858 5858 5858 5858 5858 5858 5858 5858
	0x0060:  5858 5858 5858 5858 5858 5858 5858 5858
	0x0070:  5858 5858 5858 5858 5858 5858 5858 5858
	0x0080:  5858 5858 5858 5858 5858 5858 5858 5858
	0x0090:  5858 5858 5858 5858 5858 5858 5858 5858
07:48:21.281626 IP 164.100.61.151.1616 > 52.94.228.167.http: Flags [S], seq 1441213381:1441213501, win 512, length 120: HTTP
	0x0000:  4500 00a0 84c3 0000 4006 fa93 a464 3d97
	0x0010:  345e e4a7 0650 0050 55e7 2bc5 3024 2962
	0x0020:  5002 0200 1be2 0000 5858 5858 5858 5858
	0x0030:  5858 5858 5858 5858 5858 5858 5858 5858
	0x0040:  5858 5858 5858 5858 5858 5858 5858 5858
	0x0050:  5858 5858 5858 5858 5858 5858 5858 5858
	0x0060:  5858 5858 5858 5858 5858 5858 5858 5858
	0x0070:  5858 5858 5858 5858 5858 5858 5858 5858
	0x0080:  5858 5858 5858 5858 5858 5858 5858 5858
	0x0090:  5858 5858 5858 5858 5858 5858 5858 5858
07:48:21.281648 IP 164.100.61.151.1617 > 52.94.228.167.http: Flags [S], seq 463950277:463950397, win 512, length 120: HTTP
	0x0000:  4500 00a0 64da 0000 4006 1a7d a464 3d97
	0x0010:  345e e4a7 0651 0050 1ba7 51c5 43bd 9756
	0x0020:  5002 0200 ae93 0000 5858 5858 5858 5858
	0x0030:  5858 5858 5858 5858 5858 5858 5858 5858
	0x0040:  5858 5858 5858 5858 5858 5858 5858 5858
	0x0050:  5858 5858 5858 5858 5858 5858 5858 5858
	0x0060:  5858 5858 5858 5858 5858 5858 5858 5858
	0x0070:  5858 5858 5858 5858 5858 5858 5858 5858
	0x0080:  5858 5858 5858 5858 5858 5858 5858 5858
	0x0090:  5858 5858 5858 5858 5858 5858 5858 5858
07:48:21.281666 IP 164.100.61.151.1618 > 52.94.228.167.http: Flags [S], seq 898436721:898436841, win 512, length 120: HTTP
	0x0000:  4500 00a0 fcf9 0000 4006 825d a464 3d97
	0x0010:  345e e4a7 0652 0050 358d 0e71 2705 fabc
	0x0020:  5002 0200 9152 0000 5858 5858 5858 5858
	0x0030:  5858 5858 5858 5858 5858 5858 5858 5858
	0x0040:  5858 5858 5858 5858 5858 5858 5858 5858
	0x0050:  5858 5858 5858 5858 5858 5858 5858 5858
	0x0060:  5858 5858 5858 5858 5858 5858 5858 5858
	0x0070:  5858 5858 5858 5858 5858 5858 5858 5858
	0x0080:  5858 5858 5858 5858 5858 5858 5858 5858
	0x0090:  5858 5858 5858 5858 5858 5858 5858 5858
07:48:21.281683 IP 164.100.61.151.1619 > 52.94.228.167.http: Flags [S], seq 828273636:828273756, win 512, length 120: HTTP
	0x0000:  4500 00a0 25bd 0000 4006 599a a464 3d97
	0x0010:  345e e4a7 0653 0050 315e 73e4 3ad5 62a4
	0x0020:  5002 0200 b455 0000 5858 5858 5858 5858
	0x0030:  5858 5858 5858 5858 5858 5858 5858 5858
	0x0040:  5858 5858 5858 5858 5858 5858 5858 5858
	0x0050:  5858 5858 5858 5858 5858 5858 5858 5858
	0x0060:  5858 5858 5858 5858 5858 5858 5858 5858
	0x0070:  5858 5858 5858 5858 5858 5858 5858 5858
	0x0080:  5858 5858 5858 5858 5858 5858 5858 5858
	0x0090:  5858 5858 5858 5858 5858 5858 5858 5858
07:48:21.281699 IP 164.100.61.151.1620 > 52.94.228.167.http: Flags [S], seq 162031495:162031615, win 512, length 120: HTTP
	0x0000:  4500 00a0 608b 0000 4006 1ecc a464 3d97
	0x0010:  345e e4a7 0654 0050 09a8 6787 2f5e a12a
	0x0020:  5002 0200 b558 0000 5858 5858 5858 5858
	0x0030:  5858 5858 5858 5858 5858 5858 5858 5858
	0x0040:  5858 5858 5858 5858 5858 5858 5858 5858
	0x0050:  5858 5858 5858 5858 5858 5858 5858 5858
	0x0060:  5858 5858 5858 5858 5858 5858 5858 5858
	0x0070:  5858 5858 5858 5858 5858 5858 5858 5858
	0x0080:  5858 5858 5858 5858 5858 5858 5858 5858
	0x0090:  5858 5858 5858 5858 5858 5858 5858 5858
07:48:21.281716 IP 164.100.61.151.1621 > 52.94.228.167.http: Flags [S], seq 502272694:502272814, win 512, length 120: HTTP
	0x0000:  4500 00a0 655a 0000 4006 19fd a464 3d97
	0x0010:  345e e4a7 0655 0050 1df0 12b6 6884 1079
	0x0020:  5002 0200 4d6c 0000 5858 5858 5858 5858
	0x0030:  5858 5858 5858 5858 5858 5858 5858 5858
	0x0040:  5858 5858 5858 5858 5858 5858 5858 5858
	0x0050:  5858 5858 5858 5858 5858 5858 5858 5858
	0x0060:  5858 5858 5858 5858 5858 5858 5858 5858
	0x0070:  5858 5858 5858 5858 5858 5858 5858 5858
	0x0080:  5858 5858 5858 5858 5858 5858 5858 5858
	0x0090:  5858 5858 5858 5858 5858 5858 5858 5858
07:48:21.281733 IP 164.100.61.151.1622 > 52.94.228.167.http: Flags [S], seq 1948725238:1948725358, win 512, length 120: HTTP
	0x0000:  4500 00a0 e352 0000 4006 9c04 a464 3d97
	0x0010:  345e e4a7 0656 0050 7427 2ff6 3d45 0f7a
	0x0020:  5002 0200 0632 0000 5858 5858 5858 5858
	0x0030:  5858 5858 5858 5858 5858 5858 5858 5858
	0x0040:  5858 5858 5858 5858 5858 5858 5858 5858
	0x0050:  5858 5858 5858 5858 5858 5858 5858 5858
	0x0060:  5858 5858 5858 5858 5858 5858 5858 5858
	0x0070:  5858 5858 5858 5858 5858 5858 5858 5858
	0x0080:  5858 5858 5858 5858 5858 5858 5858 5858
	0x0090:  5858 5858 5858 5858 5858 5858 5858 5858
07:48:21.281749 IP 164.100.61.151.1623 > 52.94.228.167.http: Flags [S], seq 1603007276:1603007396, win 512, length 120: HTTP
	0x0000:  4500 00a0 7206 0000 4006 0d51 a464 3d97
	0x0010:  345e e4a7 0657 0050 5f8b f32c 1535 25eb
	0x0020:  5002 0200 6935 0000 5858 5858 5858 5858
	0x0030:  5858 5858 5858 5858 5858 5858 5858 5858
	0x0040:  5858 5858 5858 5858 5858 5858 5858 5858
	0x0050:  5858 5858 5858 5858 5858 5858 5858 5858
	0x0060:  5858 5858 5858 5858 5858 5858 5858 5858
	0x0070:  5858 5858 5858 5858 5858 5858 5858 5858
	0x0080:  5858 5858 5858 5858 5858 5858 5858 5858
	0x0090:  5858 5858 5858 5858 5858 5858 5858 5858
07:48:21.281766 IP 164.100.61.151.1624 > 52.94.228.167.http: Flags [S], seq 1780310271:1780310391, win 512, length 120: HTTP
	0x0000:  4500 00a0 a5dc 0000 4006 d97a a464 3d97
	0x0010:  345e e4a7 0658 0050 6a1d 60ff 1dad 03fe
	0x0020:  5002 0200 0a45 0000 5858 5858 5858 5858
	0x0030:  5858 5858 5858 5858 5858 5858 5858 5858
	0x0040:  5858 5858 5858 5858 5858 5858 5858 5858
	0x0050:  5858 5858 5858 5858 5858 5858 5858 5858
	0x0060:  5858 5858 5858 5858 5858 5858 5858 5858
	0x0070:  5858 5858 5858 5858 5858 5858 5858 5858
	0x0080:  5858 5858 5858 5858 5858 5858 5858 5858
	0x0090:  5858 5858 5858 5858 5858 5858 5858 5858
07:48:21.281793 IP 164.100.61.151.1625 > 52.94.228.167.http: Flags [S], seq 48423310:48423430, win 512, length 120: HTTP
	0x0000:  4500 00a0 f174 0000 4006 8de2 a464 3d97
	0x0010:  345e e4a7 0659 0050 02e2 e18e 3a7f ccf3
	0x0020:  5002 0200 0b28 0000 5858 5858 5858 5858
	0x0030:  5858 5858 5858 5858 5858 5858 5858 5858
	0x0040:  5858 5858 5858 5858 5858 5858 5858 5858
	0x0050:  5858 5858 5858 5858 5858 5858 5858 5858
	0x0060:  5858 5858 5858 5858 5858 5858 5858 5858
	0x0070:  5858 5858 5858 5858 5858 5858 5858 5858
	0x0080:  5858 5858 5858 5858 5858 5858 5858 5858
	0x0090:  5858 5858 5858 5858 5858 5858 5858 5858
07:48:21.281813 IP 164.100.61.151.1626 > 52.94.228.167.http: Flags [S], seq 895736715:895736835, win 512, length 120: HTTP
	0x0000:  4500 00a0 1ad6 0000 4006 6481 a464 3d97
	0x0010:  345e e4a7 065a 0050 3563 db8b 1066 f8b9
	0x0020:  5002 0200 dcfb 0000 5858 5858 5858 5858
	0x0030:  5858 5858 5858 5858 5858 5858 5858 5858
	0x0040:  5858 5858 5858 5858 5858 5858 5858 5858
	0x0050:  5858 5858 5858 5858 5858 5858 5858 5858
	0x0060:  5858 5858 5858 5858 5858 5858 5858 5858
	0x0070:  5858 5858 5858 5858 5858 5858 5858 5858
	0x0080:  5858 5858 5858 5858 5858 5858 5858 5858
	0x0090:  5858 5858 5858 5858 5858 5858 5858 5858
07:48:21.281832 IP 164.100.61.151.1627 > 52.94.228.167.http: Flags [S], seq 495083598:495083718, win 512, length 120: HTTP
	0x0000:  4500 00a0 b22d 0000 4006 cd29 a464 3d97
	0x0010:  345e e4a7 065b 0050 1d82 604e 2c0e 4a7e
	0x0020:  5002 0200 02ad 0000 5858 5858 5858 5858
	0x0030:  5858 5858 5858 5858 5858 5858 5858 5858
	0x0040:  5858 5858 5858 5858 5858 5858 5858 5858
	0x0050:  5858 5858 5858 5858 5858 5858 5858 5858
	0x0060:  5858 5858 5858 5858 5858 5858 5858 5858
	0x0070:  5858 5858 5858 5858 5858 5858 5858 5858
	0x0080:  5858 5858 5858 5858 5858 5858 5858 5858
	0x0090:  5858 5858 5858 5858 5858 5858 5858 5858
07:48:21.281851 IP 164.100.61.151.1628 > 52.94.228.167.http: Flags [S], seq 1636287785:1636287905, win 512, length 120: HTTP
	0x0000:  4500 00a0 ace9 0000 4006 d26d a464 3d97
	0x0010:  345e e4a7 065c 0050 6187 c529 619b 58ef
	0x0020:  5002 0200 15cd 0000 5858 5858 5858 5858
	0x0030:  5858 5858 5858 5858 5858 5858 5858 5858
	0x0040:  5858 5858 5858 5858 5858 5858 5858 5858
	0x0050:  5858 5858 5858 5858 5858 5858 5858 5858
	0x0060:  5858 5858 5858 5858 5858 5858 5858 5858
	0x0070:  5858 5858 5858 5858 5858 5858 5858 5858
	0x0080:  5858 5858 5858 5858 5858 5858 5858 5858
	0x0090:  5858 5858 5858 5858 5858 5858 5858 5858
07:48:21.281870 IP 164.100.61.151.1629 > 52.94.228.167.http: Flags [S], seq 34325026:34325146, win 512, length 120: HTTP
	0x0000:  4500 00a0 0f8d 0000 4006 6fca a464 3d97
	0x0010:  345e e4a7 065d 0050 020b c222 12f9 ccd4
	0x0020:  5002 0200 530c 0000 5858 5858 5858 5858
	0x0030:  5858 5858 5858 5858 5858 5858 5858 5858
	0x0040:  5858 5858 5858 5858 5858 5858 5858 5858
	0x0050:  5858 5858 5858 5858 5858 5858 5858 5858
	0x0060:  5858 5858 5858 5858 5858 5858 5858 5858
	0x0070:  5858 5858 5858 5858 5858 5858 5858 5858
	0x0080:  5858 5858 5858 5858 5858 5858 5858 5858
	0x0090:  5858 5858 5858 5858 5858 5858 5858 5858
07:48:21.281889 IP 164.100.61.151.1630 > 52.94.228.167.http: Flags [S], seq 1827268575:1827268695, win 512, length 120: HTTP
	0x0000:  4500 00a0 b0b7 0000 4006 ce9f a464 3d97
	0x0010:  345e e4a7 065e 0050 6ce9 e7df 1ca2 345b
	0x0020:  5002 0200 5140 0000 5858 5858 5858 5858
	0x0030:  5858 5858 5858 5858 5858 5858 5858 5858
	0x0040:  5858 5858 5858 5858 5858 5858 5858 5858
	0x0050:  5858 5858 5858 5858 5858 5858 5858 5858
	0x0060:  5858 5858 5858 5858 5858 5858 5858 5858
	0x0070:  5858 5858 5858 5858 5858 5858 5858 5858
	0x0080:  5858 5858 5858 5858 5858 5858 5858 5858
	0x0090:  5858 5858 5858 5858 5858 5858 5858 5858
07:48:21.281909 IP 164.100.61.151.1631 > 52.94.228.167.http: Flags [S], seq 1597327466:1597327586, win 512, length 120: HTTP
	0x0000:  4500 00a0 c131 0000 4006 be25 a464 3d97
	0x0010:  345e e4a7 065f 0050 5f35 486a 3a92 4711
	0x0020:  5002 0200 cdc2 0000 5858 5858 5858 5858
	0x0030:  5858 5858 5858 5858 5858 5858 5858 5858
	0x0040:  5858 5858 5858 5858 5858 5858 5858 5858
	0x0050:  5858 5858 5858 5858 5858 5858 5858 5858
	0x0060:  5858 5858 5858 5858 5858 5858 5858 5858
	0x0070:  5858 5858 5858 5858 5858 5858 5858 5858
	0x0080:  5858 5858 5858 5858 5858 5858 5858 5858
	0x0090:  5858 5858 5858 5858 5858 5858 5858 5858
07:48:21.281928 IP 164.100.61.151.1632 > 52.94.228.167.http: Flags [S], seq 1835380165:1835380285, win 512, length 120: HTTP
	0x0000:  4500 00a0 d0ab 0000 4006 aeab a464 3d97
	0x0010:  345e e4a7 0660 0050 6d65 adc5 2eb9 7708
	0x0020:  5002 0200 3618 0000 5858 5858 5858 5858
	0x0030:  5858 5858 5858 5858 5858 5858 5858 5858
	0x0040:  5858 5858 5858 5858 5858 5858 5858 5858
	0x0050:  5858 5858 5858 5858 5858 5858 5858 5858
	0x0060:  5858 5858 5858 5858 5858 5858 5858 5858
	0x0070:  5858 5858 5858 5858 5858 5858 5858 5858
	0x0080:  5858 5858 5858 5858 5858 5858 5858 5858
	0x0090:  5858 5858 5858 5858 5858 5858 5858 5858
07:48:21.281947 IP 164.100.61.151.1633 > 52.94.228.167.http: Flags [S], seq 1097765143:1097765263, win 512, length 120: HTTP
	0x0000:  4500 00a0 f696 0000 4006 88c0 a464 3d97
	0x0010:  345e e4a7 0661 0050 416e 9117 0e45 6a34
	0x0020:  5002 0200 ac04 0000 5858 5858 5858 5858
	0x0030:  5858 5858 5858 5858 5858 5858 5858 5858
	0x0040:  5858 5858 5858 5858 5858 5858 5858 5858
	0x0050:  5858 5858 5858 5858 5858 5858 5858 5858
	0x0060:  5858 5858 5858 5858 5858 5858 5858 5858
	0x0070:  5858 5858 5858 5858 5858 5858 5858 5858
	0x0080:  5858 5858 5858 5858 5858 5858 5858 5858
	0x0090:  5858 5858 5858 5858 5858 5858 5858 5858
07:48:21.281967 IP 164.100.61.151.1634 > 52.94.228.167.http: Flags [S], seq 1902773021:1902773141, win 512, length 120: HTTP
	0x0000:  4500 00a0 fa94 0000 4006 84c2 a464 3d97
	0x0010:  345e e4a7 0662 0050 716a 031d 7862 cb33
	0x0020:  5002 0200 3ee5 0000 5858 5858 5858 5858
	0x0030:  5858 5858 5858 5858 5858 5858 5858 5858
	0x0040:  5858 5858 5858 5858 5858 5858 5858 5858
	0x0050:  5858 5858 5858 5858 5858 5858 5858 5858
	0x0060:  5858 5858 5858 5858 5858 5858 5858 5858
	0x0070:  5858 5858 5858 5858 5858 5858 5858 5858
	0x0080:  5858 5858 5858 5858 5858 5858 5858 5858
	0x0090:  5858 5858 5858 5858 5858 5858 5858 5858
07:48:21.281983 IP 164.100.61.151.1635 > 52.94.228.167.http: Flags [S], seq 543533306:543533426, win 512, length 120: HTTP
	0x0000:  4500 00a0 c788 0000 4006 b7ce a464 3d97
	0x0010:  345e e4a7 0663 0050 2065 a8fa 7b45 acc2
	0x0020:  5002 0200 059a 0000 5858 5858 5858 5858
	0x0030:  5858 5858 5858 5858 5858 5858 5858 5858
	0x0040:  5858 5858 5858 5858 5858 5858 5858 5858
	0x0050:  5858 5858 5858 5858 5858 5858 5858 5858
	0x0060:  5858 5858 5858 5858 5858 5858 5858 5858
	0x0070:  5858 5858 5858 5858 5858 5858 5858 5858
	0x0080:  5858 5858 5858 5858 5858 5858 5858 5858
	0x0090:  5858 5858 5858 5858 5858 5858 5858 5858
07:48:21.281999 IP 164.100.61.151.1636 > 52.94.228.167.http: Flags [S], seq 395418222:395418342, win 512, length 120: HTTP
	0x0000:  4500 00a0 c041 0000 4006 bf15 a464 3d97
	0x0010:  345e e4a7 0664 0050 1791 9a6e 30a9 884d
	0x0020:  5002 0200 8c0a 0000 5858 5858 5858 5858
	0x0030:  5858 5858 5858 5858 5858 5858 5858 5858
	0x0040:  5858 5858 5858 5858 5858 5858 5858 5858
	0x0050:  5858 5858 5858 5858 5858 5858 5858 5858
	0x0060:  5858 5858 5858 5858 5858 5858 5858 5858
	0x0070:  5858 5858 5858 5858 5858 5858 5858 5858
	0x0080:  5858 5858 5858 5858 5858 5858 5858 5858
	0x0090:  5858 5858 5858 5858 5858 5858 5858 5858
07:48:21.282016 IP 164.100.61.151.1637 > 52.94.228.167.http: Flags [S], seq 1054979396:1054979516, win 512, length 120: HTTP
	0x0000:  4500 00a0 0abf 0000 4006 7498 a464 3d97
	0x0010:  345e e4a7 0665 0050 3ee1 b544 4e2b e89b
	0x0020:  5002 0200 cc12 0000 5858 5858 5858 5858
	0x0030:  5858 5858 5858 5858 5858 5858 5858 5858
	0x0040:  5858 5858 5858 5858 5858 5858 5858 5858
	0x0050:  5858 5858 5858 5858 5858 5858 5858 5858
	0x0060:  5858 5858 5858 5858 5858 5858 5858 5858
	0x0070:  5858 5858 5858 5858 5858 5858 5858 5858
	0x0080:  5858 5858 5858 5858 5858 5858 5858 5858
	0x0090:  5858 5858 5858 5858 5858 5858 5858 5858
07:48:21.282032 IP 164.100.61.151.1638 > 52.94.228.167.http: Flags [S], seq 703555441:703555561, win 512, length 120: HTTP
	0x0000:  4500 00a0 63ae 0000 4006 1ba9 a464 3d97
	0x0010:  345e e4a7 0666 0050 29ef 6771 2fb3 adc4
	0x0020:  5002 0200 8826 0000 5858 5858 5858 5858
	0x0030:  5858 5858 5858 5858 5858 5858 5858 5858
	0x0040:  5858 5858 5858 5858 5858 5858 5858 5858
	0x0050:  5858 5858 5858 5858 5858 5858 5858 5858
	0x0060:  5858 5858 5858 5858 5858 5858 5858 5858
	0x0070:  5858 5858 5858 5858 5858 5858 5858 5858
	0x0080:  5858 5858 5858 5858 5858 5858 5858 5858
	0x0090:  5858 5858 5858 5858 5858 5858 5858 5858
07:48:21.282048 IP 164.100.61.151.1639 > 52.94.228.167.http: Flags [S], seq 1006834778:1006834898, win 512, length 120: HTTP
	0x0000:  4500 00a0 3082 0000 4006 4ed5 a464 3d97
	0x0010:  345e e4a7 0667 0050 3c03 145a 31bf 6fe6
	0x0020:  5002 0200 04fb 0000 5858 5858 5858 5858
	0x0030:  5858 5858 5858 5858 5858 5858 5858 5858
	0x0040:  5858 5858 5858 5858 5858 5858 5858 5858
	0x0050:  5858 5858 5858 5858 5858 5858 5858 5858
	0x0060:  5858 5858 5858 5858 5858 5858 5858 5858
	0x0070:  5858 5858 5858 5858 5858 5858 5858 5858
	0x0080:  5858 5858 5858 5858 5858 5858 5858 5858
	0x0090:  5858 5858 5858 5858 5858 5858 5858 5858
07:48:21.282065 IP 164.100.61.151.1640 > 52.94.228.167.http: Flags [S], seq 149693416:149693536, win 512, length 120: HTTP
	0x0000:  4500 00a0 64dd 0000 4006 1a7a a464 3d97
	0x0010:  345e e4a7 0668 0050 08ec 23e8 1ea9 57c6
	0x0020:  5002 0200 53b9 0000 5858 5858 5858 5858
	0x0030:  5858 5858 5858 5858 5858 5858 5858 5858
	0x0040:  5858 5858 5858 5858 5858 5858 5858 5858
	0x0050:  5858 5858 5858 5858 5858 5858 5858 5858
	0x0060:  5858 5858 5858 5858 5858 5858 5858 5858
	0x0070:  5858 5858 5858 5858 5858 5858 5858 5858
	0x0080:  5858 5858 5858 5858 5858 5858 5858 5858
	0x0090:  5858 5858 5858 5858 5858 5858 5858 5858
07:48:21.282081 IP 164.100.61.151.1641 > 52.94.228.167.http: Flags [S], seq 87282847:87282967, win 512, length 120: HTTP
	0x0000:  4500 00a0 abef 0000 4006 d367 a464 3d97
	0x0010:  345e e4a7 0669 0050 0533 d49f 7dde a030
	0x0020:  5002 0200 ff19 0000 5858 5858 5858 5858
	0x0030:  5858 5858 5858 5858 5858 5858 5858 5858
	0x0040:  5858 5858 5858 5858 5858 5858 5858 5858
	0x0050:  5858 5858 5858 5858 5858 5858 5858 5858
	0x0060:  5858 5858 5858 5858 5858 5858 5858 5858
	0x0070:  5858 5858 5858 5858 5858 5858 5858 5858
	0x0080:  5858 5858 5858 5858 5858 5858 5858 5858
	0x0090:  5858 5858 5858 5858 5858 5858 5858 5858
07:48:21.282098 IP 164.100.61.151.1642 > 52.94.228.167.http: Flags [S], seq 1778357712:1778357832, win 512, length 120: HTTP
	0x0000:  4500 00a0 22f7 0000 4006 5c60 a464 3d97
	0x0010:  345e e4a7 066a 0050 69ff 95d0 6b44 4df5
	0x0020:  5002 0200 3df1 0000 5858 5858 5858 5858
	0x0030:  5858 5858 5858 5858 5858 5858 5858 5858
	0x0040:  5858 5858 5858 5858 5858 5858 5858 5858
	0x0050:  5858 5858 5858 5858 5858 5858 5858 5858
	0x0060:  5858 5858 5858 5858 5858 5858 5858 5858
	0x0070:  5858 5858 5858 5858 5858 5858 5858 5858
	0x0080:  5858 5858 5858 5858 5858 5858 5858 5858
	0x0090:  5858 5858 5858 5858 5858 5858 5858 5858
07:48:21.282114 IP 164.100.61.151.1643 > 52.94.228.167.http: Flags [S], seq 202401404:202401524, win 512, length 120: HTTP
	0x0000:  4500 00a0 8d2b 0000 4006 f22b a464 3d97
	0x0010:  345e e4a7 066b 0050 0c10 667c 2cb2 df0d
	0x0020:  5002 0200 78ad 0000 5858 5858 5858 5858
	0x0030:  5858 5858 5858 5858 5858 5858 5858 5858
	0x0040:  5858 5858 5858 5858 5858 5858 5858 5858
	0x0050:  5858 5858 5858 5858 5858 5858 5858 5858
	0x0060:  5858 5858 5858 5858 5858 5858 5858 5858
	0x0070:  5858 5858 5858 5858 5858 5858 5858 5858
	0x0080:  5858 5858 5858 5858 5858 5858 5858 5858
	0x0090:  5858 5858 5858 5858 5858 5858 5858 5858
07:48:21.282131 IP 164.100.61.151.1644 > 52.94.228.167.http: Flags [S], seq 1129733394:1129733514, win 512, length 120: HTTP
	0x0000:  4500 00a0 585f 0000 4006 26f8 a464 3d97
	0x0010:  345e e4a7 066c 0050 4356 5d12 1e1c e22a
	0x0020:  5002 0200 5649 0000 5858 5858 5858 5858
	0x0030:  5858 5858 5858 5858 5858 5858 5858 5858
	0x0040:  5858 5858 5858 5858 5858 5858 5858 5858
	0x0050:  5858 5858 5858 5858 5858 5858 5858 5858
	0x0060:  5858 5858 5858 5858 5858 5858 5858 5858
	0x0070:  5858 5858 5858 5858 5858 5858 5858 5858
	0x0080:  5858 5858 5858 5858 5858 5858 5858 5858
	0x0090:  5858 5858 5858 5858 5858 5858 5858 5858
07:48:21.282147 IP 164.100.61.151.datametrics > 52.94.228.167.http: Flags [S], seq 407459751:407459871, win 512, length 120: HTTP
	0x0000:  4500 00a0 0521 0000 4006 7a36 a464 3d97
	0x0010:  345e e4a7 066d 0050 1849 57a7 3e82 8b24
	0x0020:  5002 0200 bd60 0000 5858 5858 5858 5858
	0x0030:  5858 5858 5858 5858 5858 5858 5858 5858
	0x0040:  5858 5858 5858 5858 5858 5858 5858 5858
	0x0050:  5858 5858 5858 5858 5858 5858 5858 5858
	0x0060:  5858 5858 5858 5858 5858 5858 5858 5858
	0x0070:  5858 5858 5858 5858 5858 5858 5858 5858
	0x0080:  5858 5858 5858 5858 5858 5858 5858 5858
	0x0090:  5858 5858 5858 5858 5858 5858 5858 5858
07:48:21.282163 IP 164.100.61.151.sa-msg-port > 52.94.228.167.http: Flags [S], seq 666640175:666640295, win 512, length 120: HTTP
	0x0000:  4500 00a0 8d6e 0000 4006 f1e8 a464 3d97
	0x0010:  345e e4a7 066e 0050 27bc 1f2f 5614 2592
	0x0020:  5002 0200 3465 0000 5858 5858 5858 5858
	0x0030:  5858 5858 5858 5858 5858 5858 5858 5858
	0x0040:  5858 5858 5858 5858 5858 5858 5858 5858
	0x0050:  5858 5858 5858 5858 5858 5858 5858 5858
	0x0060:  5858 5858 5858 5858 5858 5858 5858 5858
	0x0070:  5858 5858 5858 5858 5858 5858 5858 5858
	0x0080:  5858 5858 5858 5858 5858 5858 5858 5858
	0x0090:  5858 5858 5858 5858 5858 5858 5858 5858
07:48:21.282180 IP 164.100.61.151.1647 > 52.94.228.167.http: Flags [S], seq 1201004400:1201004520, win 512, length 120: HTTP
	0x0000:  4500 00a0 7609 0000 4006 094e a464 3d97
	0x0010:  345e e4a7 066f 0050 4795 df70 14f5 dad7
	0x0020:  5002 0200 e022 0000 5858 5858 5858 5858
	0x0030:  5858 5858 5858 5858 5858 5858 5858 5858
	0x0040:  5858 5858 5858 5858 5858 5858 5858 5858
	0x0050:  5858 5858 5858 5858 5858 5858 5858 5858
	0x0060:  5858 5858 5858 5858 5858 5858 5858 5858
	0x0070:  5858 5858 5858 5858 5858 5858 5858 5858
	0x0080:  5858 5858 5858 5858 5858 5858 5858 5858
	0x0090:  5858 5858 5858 5858 5858 5858 5858 5858
07:48:21.282196 IP 164.100.61.151.1648 > 52.94.228.167.http: Flags [S], seq 327019055:327019175, win 512, length 120: HTTP
	0x0000:  4500 00a0 23ce 0000 4006 5b89 a464 3d97
	0x0010:  345e e4a7 0670 0050 137d ea2f 3ee5 4248
	0x0020:  5002 0200 781a 0000 5858 5858 5858 5858
	0x0030:  5858 5858 5858 5858 5858 5858 5858 5858
	0x0040:  5858 5858 5858 5858 5858 5858 5858 5858
	0x0050:  5858 5858 5858 5858 5858 5858 5858 5858
	0x0060:  5858 5858 5858 5858 5858 5858 5858 5858
	0x0070:  5858 5858 5858 5858 5858 5858 5858 5858
	0x0080:  5858 5858 5858 5858 5858 5858 5858 5858
	0x0090:  5858 5858 5858 5858 5858 5858 5858 5858
07:48:21.282213 IP 164.100.61.151.kermit > 52.94.228.167.http: Flags [S], seq 1090604509:1090604629, win 512, length 120: HTTP
	0x0000:  4500 00a0 93b4 0000 4006 eba2 a464 3d97
	0x0010:  345e e4a7 0671 0050 4101 4ddd 7ae8 56a3
	0x0020:  5002 0200 9689 0000 5858 5858 5858 5858
	0x0030:  5858 5858 5858 5858 5858 5858 5858 5858
	0x0040:  5858 5858 5858 5858 5858 5858 5858 5858
	0x0050:  5858 5858 5858 5858 5858 5858 5858 5858
	0x0060:  5858 5858 5858 5858 5858 5858 5858 5858
	0x0070:  5858 5858 5858 5858 5858 5858 5858 5858
	0x0080:  5858 5858 5858 5858 5858 5858 5858 5858
	0x0090:  5858 5858 5858 5858 5858 5858 5858 5858
07:48:21.282229 IP 164.100.61.151.1650 > 52.94.228.167.http: Flags [S], seq 25067104:25067224, win 512, length 120: HTTP
	0x0000:  4500 00a0 eb7a 0000 4006 93dc a464 3d97
	0x0010:  345e e4a7 0672 0050 017e 7e60 03d4 7a8b
	0x0020:  5002 0200 f8b4 0000 5858 5858 5858 5858
	0x0030:  5858 5858 5858 5858 5858 5858 5858 5858
	0x0040:  5858 5858 5858 5858 5858 5858 5858 5858
	0x0050:  5858 5858 5858 5858 5858 5858 5858 5858
	0x0060:  5858 5858 5858 5858 5858 5858 5858 5858
	0x0070:  5858 5858 5858 5858 5858 5858 5858 5858
	0x0080:  5858 5858 5858 5858 5858 5858 5858 5858
	0x0090:  5858 5858 5858 5858 5858 5858 5858 5858
07:48:21.282245 IP 164.100.61.151.1651 > 52.94.228.167.http: Flags [S], seq 1587405629:1587405749, win 512, length 120: HTTP
	0x0000:  4500 00a0 8bab 0000 4006 f3ab a464 3d97
	0x0010:  345e e4a7 0673 0050 5e9d e33d 0908 4f2a
	0x0020:  5002 0200 5ce4 0000 5858 5858 5858 5858
	0x0030:  5858 5858 5858 5858 5858 5858 5858 5858
	0x0040:  5858 5858 5858 5858 5858 5858 5858 5858
	0x0050:  5858 5858 5858 5858 5858 5858 5858 5858
	0x0060:  5858 5858 5858 5858 5858 5858 5858 5858
	0x0070:  5858 5858 5858 5858 5858 5858 5858 5858
	0x0080:  5858 5858 5858 5858 5858 5858 5858 5858
	0x0090:  5858 5858 5858 5858 5858 5858 5858 5858
07:48:21.282262 IP 164.100.61.151.1652 > 52.94.228.167.http: Flags [S], seq 1984925484:1984925604, win 512, length 120: HTTP
	0x0000:  4500 00a0 d9a0 0000 4006 a5b6 a464 3d97
	0x0010:  345e e4a7 0674 0050 764f 8f2c 7307 e4fb
	0x0020:  5002 0200 9971 0000 5858 5858 5858 5858
	0x0030:  5858 5858 5858 5858 5858 5858 5858 5858
	0x0040:  5858 5858 5858 5858 5858 5858 5858 5858
	0x0050:  5858 5858 5858 5858 5858 5858 5858 5858
	0x0060:  5858 5858 5858 5858 5858 5858 5858 5858
	0x0070:  5858 5858 5858 5858 5858 5858 5858 5858
	0x0080:  5858 5858 5858 5858 5858 5858 5858 5858
	0x0090:  5858 5858 5858 5858 5858 5858 5858 5858
07:48:21.282278 IP 164.100.61.151.1653 > 52.94.228.167.http: Flags [S], seq 1018868259:1018868379, win 512, length 120: HTTP
	0x0000:  4500 00a0 b8ad 0000 4006 c6a9 a464 3d97
	0x0010:  345e e4a7 0675 0050 3cba b223 7f18 4b77
	0x0020:  5002 0200 3d82 0000 5858 5858 5858 5858
	0x0030:  5858 5858 5858 5858 5858 5858 5858 5858
	0x0040:  5858 5858 5858 5858 5858 5858 5858 5858
	0x0050:  5858 5858 5858 5858 5858 5858 5858 5858
	0x0060:  5858 5858 5858 5858 5858 5858 5858 5858
	0x0070:  5858 5858 5858 5858 5858 5858 5858 5858
	0x0080:  5858 5858 5858 5858 5858 5858 5858 5858
	0x0090:  5858 5858 5858 5858 5858 5858 5858 5858
07:48:21.282294 IP 164.100.61.151.1654 > 52.94.228.167.http: Flags [S], seq 292241231:292241351, win 512, length 120: HTTP
	0x0000:  4500 00a0 9ad8 0000 4006 e47e a464 3d97
	0x0010:  345e e4a7 0676 0050 116b 3f4f 426e a889
	0x0020:  5002 0200 bb3c 0000 5858 5858 5858 5858
	0x0030:  5858 5858 5858 5858 5858 5858 5858 5858
	0x0040:  5858 5858 5858 5858 5858 5858 5858 5858
	0x0050:  5858 5858 5858 5858 5858 5858 5858 5858
	0x0060:  5858 5858 5858 5858 5858 5858 5858 5858
	0x0070:  5858 5858 5858 5858 5858 5858 5858 5858
	0x0080:  5858 5858 5858 5858 5858 5858 5858 5858
	0x0090:  5858 5858 5858 5858 5858 5858 5858 5858
07:48:21.282311 IP 164.100.61.151.1655 > 52.94.228.167.http: Flags [S], seq 1585354670:1585354790, win 512, length 120: HTTP
	0x0000:  4500 00a0 25fc 0000 4006 595b a464 3d97
	0x0010:  345e e4a7 0677 0050 5e7e 97ae 5ab8 0030
	0x0020:  5002 0200 a5d8 0000 5858 5858 5858 5858
	0x0030:  5858 5858 5858 5858 5858 5858 5858 5858
	0x0040:  5858 5858 5858 5858 5858 5858 5858 5858
	0x0050:  5858 5858 5858 5858 5858 5858 5858 5858
	0x0060:  5858 5858 5858 5858 5858 5858 5858 5858
	0x0070:  5858 5858 5858 5858 5858 5858 5858 5858
	0x0080:  5858 5858 5858 5858 5858 5858 5858 5858
	0x0090:  5858 5858 5858 5858 5858 5858 5858 5858
07:48:21.282327 IP 164.100.61.151.1656 > 52.94.228.167.http: Flags [S], seq 651664591:651664711, win 512, length 120: HTTP
	0x0000:  4500 00a0 4b8f 0000 4006 33c8 a464 3d97
	0x0010:  345e e4a7 0678 0050 26d7 9ccf 0274 1f5f
	0x0020:  5002 0200 1173 0000 5858 5858 5858 5858
	0x0030:  5858 5858 5858 5858 5858 5858 5858 5858
	0x0040:  5858 5858 5858 5858 5858 5858 5858 5858
	0x0050:  5858 5858 5858 5858 5858 5858 5858 5858
	0x0060:  5858 5858 5858 5858 5858 5858 5858 5858
	0x0070:  5858 5858 5858 5858 5858 5858 5858 5858
	0x0080:  5858 5858 5858 5858 5858 5858 5858 5858
	0x0090:  5858 5858 5858 5858 5858 5858 5858 5858
07:48:21.282344 IP 164.100.61.151.1657 > 52.94.228.167.http: Flags [S], seq 534391357:534391477, win 512, length 120: HTTP
	0x0000:  4500 00a0 2666 0000 4006 58f1 a464 3d97
	0x0010:  345e e4a7 0679 0050 1fda 2a3d 4a09 fecf
	0x0020:  5002 0200 63fb 0000 5858 5858 5858 5858
	0x0030:  5858 5858 5858 5858 5858 5858 5858 5858
	0x0040:  5858 5858 5858 5858 5858 5858 5858 5858
	0x0050:  5858 5858 5858 5858 5858 5858 5858 5858
	0x0060:  5858 5858 5858 5858 5858 5858 5858 5858
	0x0070:  5858 5858 5858 5858 5858 5858 5858 5858
	0x0080:  5858 5858 5858 5858 5858 5858 5858 5858
	0x0090:  5858 5858 5858 5858 5858 5858 5858 5858
07:48:21.282360 IP 164.100.61.151.1658 > 52.94.228.167.http: Flags [S], seq 1728618566:1728618686, win 512, length 120: HTTP
	0x0000:  4500 00a0 68ae 0000 4006 16a9 a464 3d97
	0x0010:  345e e4a7 067a 0050 6708 a046 5d87 e8fe
	0x0020:  5002 0200 a915 0000 5858 5858 5858 5858
	0x0030:  5858 5858 5858 5858 5858 5858 5858 5858
	0x0040:  5858 5858 5858 5858 5858 5858 5858 5858
	0x0050:  5858 5858 5858 5858 5858 5858 5858 5858
	0x0060:  5858 5858 5858 5858 5858 5858 5858 5858
	0x0070:  5858 5858 5858 5858 5858 5858 5858 5858
	0x0080:  5858 5858 5858 5858 5858 5858 5858 5858
	0x0090:  5858 5858 5858 5858 5858 5858 5858 5858
07:48:21.282376 IP 164.100.61.151.1659 > 52.94.228.167.http: Flags [S], seq 1575666708:1575666828, win 512, length 120: HTTP
	0x0000:  4500 00a0 bf51 0000 4006 c005 a464 3d97
	0x0010:  345e e4a7 067b 0050 5dea c414 1e89 36dc
